:020000040800F2
:1000000060070020D5010008AD050008A50500081F
:10001000A905000889040008571000080000000026
:100020000000000000000000000000004D07000874
:100030008D04000800000000350600086108000873
:10004000EF010008EF010008EF010008EF010008D0
:10005000EF010008EF010008EF010008EF010008C0
:10006000EF010008EF010008EF010008EF010008B0
:10007000EF010008EF010008EF010008EF010008A0
:10008000EF010008EF010008EF010008EF01000890
:10009000EF010008EF010008EF010008EF01000880
:1000A000EF010008EF010008EF010008EF01000870
:1000B000EF010008EF010008EF010008EF01000860
:1000C000EF010008EF010008EF010008EF01000850
:1000D000EF010008350E0008EF010008EF010008ED
:1000E000EF010008EF010008EF010008EF01000830
:1000F000EF010008EF010008EF010008EF01000820
:10010000EF010008EF010008050B0008EF010008EF
:10011000EF010008EF010008EF010008EF010008FF
:10012000EF010008EF010008EF010008EF010008EF
:1001300000F002F800F03FF80AA090E8000C8244BA
:100140008344AAF10107DA4501D100F034F8AFF297
:10015000090EBAE80F0013F0010F18BFFB1A43F0A5
:1001600001031847C4120000E4120000103A24BF33
:1001700078C878C1FAD8520724BF30C830C144BF0C
:1001800004680C607047000000230024002500264E
:10019000103A28BF78C1FBD8520728BF30C148BFEA
:1001A0000B607047642900F07780002070471FB50E
:1001B0001FBD10B510BD00F037F91146FFF7F7FF6E
:1001C00000F084FF00F055F903B4FFF7F2FF03BC21
:1001D00000F043FF0948804709480047FEE7FEE773
:1001E000FEE7FEE7FEE7FEE7FEE7FEE7FEE7FEE7E7
:1001F00004480549054A064B704700006508000899
:100200003101000860010020600700206003002029
:1002100060030020704700000FB4044910B503AA22
:10022000029800F0D3F810BC5DF814FB1C0000200D
:100230002DE9F0410E460446002020622046E16888
:10024000884730B3252805D0D4E901219047206A9A
:10025000401CF2E7E168204600278847050018D0D7
:10026000A5F14100192802D820354FF40067324625
:10027000294620462760FFF795FF40B1012804D0AA
:10028000F61D26F007060836D8E7361DD6E72846BD
:10029000DAE7206ABDE8F0812DE9F0410646002446
:1002A00010687529314616A510D0AFF300800028DC
:1002B00002DA404213A507E031688A0701D512A58A
:1002C00002E0490704D511A5012401E0AFF3008045
:1002D00000210A2206F1240709E0B0FBF2FCB0FB82
:1002E000F2F302FB1C00303078541846491C0028F9
:1002F000F3D123462A463046BDE8F04100F00CB861
:10030000000000002D0000002B0000002000000075
:1003100070477047704770472DE9F0470D46994682
:100320009246044600F124080168880604D5E06975
:1003300021F01001216000E00120A84201DD471BEF
:1003400000E00027A1697A1902EB0900081AA061F0
:100350002078C00602D42046AFF30080002608E0D3
:10036000D4E901211AF806009047206A401C761C47
:1003700020624E45F4DB2078C0060AD52046AFF354
:10038000008006E0D4E9012130209047206A401C1B
:100390002062381EA7F10107F4DC07E0D4E901214F
:1003A00018F805009047206A401C2062281EA5F11D
:1003B0000105F3DC2046AFF300802078000602D56B
:1003C0000220BDE8F0870120FBE70000074B70B575
:1003D0000D467B4400F011F80446284600F020F852
:1003E00010B14FF0FF3070BD204670BDCF0C000043
:1003F00001694A1C02610878704700B58FB0CDE9E9
:1004000001310021059105497944CDE903101146D8
:100410006846FFF70DFF0FB000BD0000E5FFFFFFCE
:10042000007B00F080007047754600F029F8AE466A
:1004300005006946534620F00700854618B020B5F0
:10044000FFF7D6FEBDE820404FF000064FF0000752
:100450004FF000084FF0000B21F00701AC46ACE86C
:10046000C009ACE8C009ACE8C009ACE8C0098D46D9
:1004700070470446AFF300802046FFF7A5FE00005A
:10048000004870470001002000BFFEE770472DE9DB
:10049000F04102460025002600200023002400270A
:1004A00091F803C00CF00F0591F803C00CF0100C8C
:1004B000BCF1000F03D091F802C04CEA050591F899
:1004C00000C0BCF1000F31D0146800202BE04FF0C9
:1004D000010C0CFA00F3B1F800C00CEA03069E42CE
:1004E00020D183004FF00F0C0CFA03F7BC4305FA40
:1004F00003FC4CEA040491F803C0BCF1280F06D1B8
:100500004FF0010C0CFA00FCC2F814C00AE091F89C
:1005100003C0BCF1480F05D14FF0010C0CFA00FCF0
:10052000C2F810C0401C0828D1D31460B1F800C034
:10053000BCF1FF0F34DD546800202EE000F1080C00
:100540004FF0010808FA0CF3B1F800C00CEA0306FA
:100550009E4221D183004FF00F0C0CFA03F7BC43ED
:1005600005FA03FC4CEA040491F803C0BCF1280F1F
:1005700005D100F1080C08FA0CF8C2F8148091F8C3
:1005800003C0BCF1480F07D100F1080C4FF001087F
:1005900008FA0CF8C2F81080401C0828CED354602A
:1005A000BDE8F08100BFFEE700BFFEE77047000036
:1005B00070B5002100230F22C47804B3154C2468C1
:1005C00004F4E064C4F5E064210AC1F10403CA4004
:1005D000447804FA03F184781440214309010E4C55
:1005E0000678A155047804F01F050124AC40057875
:1005F0006D11AD0005F1E025C5F8004109E0047872
:1006000004F01F050124AC40044D0678761145F82E
:10061000264070BD0CED00E000E400E080E100E069
:1006200002490143024A1160704700000000FA05C8
:100630000CED00E07047000029B1064AD269024380
:10064000044BDA6104E0034AD2698243014BDA6168
:10065000704700000010024029B1064A9269024327
:10066000044B9A6104E0034A92698243014B9A6108
:10067000704700000010024030B500210022002425
:1006800000232D4D6D6805F00C0121B1042905D022
:10069000082923D105E0294D056022E0274D05609A
:1006A0001FE0254D6D6805F47012234D6D6805F44B
:1006B0008034022505EB92421CB9214D554305605B
:1006C0000BE01D4D6D6805F400351DB11C4D554303
:1006D000056002E0194D5543056002E0174D0560C5
:1006E00000BF00BF144D6D6805F0F0010909154DFC
:1006F0006B5C0568DD4045600F4D6D6805F4E06199
:10070000090A104D6B5C4568DD4085600A4D6D68D7
:1007100005F46051C90A0B4D6B5C4568DD40C5604E
:10072000054D6D6805F44041890B074D6B5CC5684C
:10073000B5FBF3F5056130BD0010024000127A00F0
:1007400000093D002200002032000020704710B553
:1007500000F002F810BD00000CB5002001900090E0
:100760003348006840F480303149086000BF3048A9
:10077000006800F4003000900198401C019000983F
:1007800018B90198B0F5A06FF1D12948006800F4BC
:10079000003010B10120009001E00020009000988E
:1007A000012843D12348006840F010002149086027
:1007B0000846006820F0030008600846006840F022
:1007C000020008601A4840681949486008464068B5
:1007D00048600846406840F48060486008464068C9
:1007E00020F47C1048600846406840F4E8104860F7
:1007F0000846006840F08070086000BF0C48006840
:1008000000F000700028F9D00948406820F003008B
:10081000074948600846406840F00200486000BF51
:100820000348406800F00C000828F9D10CBD000016
:100830000010024000200240042808D14FF0E021BF
:10084000096941F004014FF0E022116107E04FF027
:10085000E021096921F004014FF0E02211617047A5
:100860007047000010B51348006840F001001149BE
:10087000086008464068104908400E49486008462C
:1008800000680E4908400B4908600846006820F4DB
:10089000802008600846406820F4FE0048604FF45D
:1008A0001F008860FFF753FF4FF0006004490860A5
:1008B00010BD0000001002400000FFF8FFFFF6FE30
:1008C00008ED00E0F0B50C46154600220021068C2C
:1008D0004FF6FE773E400684028B018C4FF60C7675
:1008E00032407E1C06EA03162E433243104EB042BD
:1008F0000ED0104EB0420BD0B0F1804F08D00E4E4B
:10090000B04205D00D4EB04202D00D4EB04206D1DD
:100910004FF6FD76314044F00106314305E04FF6D5
:10092000F576314044F00106314302830184F0BD85
:10093000002C014000340140000400400008004049
:10094000000C0040F0B50C461546002200210026A0
:10095000078C4FF6EF7C07EA0C070784028B018CAB
:100960004FF6FF7707EA041640F6FF473A404FF686
:10097000FF7707EA03373A434FF6FF7707EA052781
:100980003A43114FB8420ED0104FB8420BD0B0F1DD
:10099000804F08D00E4FB84205D00E4FB84202D05B
:1009A0000D4FB84206D14FF6DF77394046F01007B9
:1009B000394305E04FF65F77394044F0100739437B
:1009C00002830184F0BD0000002C0140003401408E
:1009D0000004004000080040000C0040F0B50C4648
:1009E0001546002200210026078C4FF6FF6C07EA0F
:1009F0000C070784828B018C4FF6FF7707EA0426E9
:100A00004FF60C773A404FF6FF7707EA03172F436C
:100A10003A43114FB8420ED0104FB8420BD0B0F14C
:100A2000804F08D00E4FB84205D00E4FB84202D0CA
:100A30000D4FB84206D14FF6FF57394046F4807744
:100A4000394305E04FF2FF57394044F4807739438A
:100A500082830184F0BD0000002C0140003401407D
:100A60000004004000080040000C0040F0B50C46B7
:100A70001546002200210026078C4EF6FF7C07EA6F
:100A80000C070784828B018C4FF6FF7707EA043648
:100A900040F6FF473A404FF6FF7707EA05273A430B
:100AA0004FF6FF7707EA03373A43114FB8420ED0AB
:100AB000104FB8420BD0B0F1804F08D00E4FB84263
:100AC00005D00E4FB84202D00D4FB84206D14DF6B8
:100AD000FF77394046F48057394305E047F6FF5722
:100AE000394044F48057394382830184F0BD0000CB
:100AF000002C014000340140000400400008004088
:100B0000000C004010B50121054800F040F830B15C
:100B1000044800F0FBFB0121014800F008F810BD7B
:100B2000000C004014000020CA4302827047CA43F0
:100B30000282704721B1028842F00102028004E083
:100B400002884FF6FE731A4002807047F0B50C46DB
:100B500015461E460021002200230189028B038CCA
:100B60004FF6F877394021434FF6FC473A4040F2C0
:100B700001173A434FF6DD773B404FF6FF7707EA20
:100B800006172F433B43018102830384F0BD30B538
:100B90000246002000230024158A05EA01039589F6
:100BA00005EA010413B10CB1012000E0002030BDC2
:100BB00070B505460C46244885420ED02348854230
:100BC0000BD0B5F1804F08D02148854205D021488F
:100BD000854202D02048854200D100E000BF208835
:100BE00050B92389A28861882846FFF76BFEE18807
:100BF000284600F0A0F825E0208804280AD123899F
:100C0000A28861882846FFF79DFEE188284600F00B
:100C10009BF817E0208808280AD12389A2886188D8
:100C20002846FFF7DBFEE188284600F09AF809E045
:100C30002389A28861882846FFF718FFE1882846A3
:100C400000F098F870BD0000002C01400034014015
:100C50000004004000080040000C00401AB18389E5
:100C60000B43838102E083898B43838170470000BB
:100C700070B5002400220023058C4FF6EF76354036
:100C80000584028C8388048B48F6FF752C404FF650
:100C9000FF452C400D884FF6FF7606EA05252C43CC
:100CA0004FF6DF752A400D8906EA05152A434D885F
:100CB00006EA05152A43154DA84202D0144DA84254
:100CC0001DD14FF67F752A404D894FF6FF7606EA13
:100CD00005152A434FF6BF752A408D8806EA05158B
:100CE0002A434FF6FF352B404FF2FF752B408D897D
:100CF00006EA85052B43CD8906EA85052B438380CB
:100D00000483CD880587028470BD0000002C01405B
:100D1000003401400A460021018B4FF2FF73194055
:100D20004FF6FF7303EA02231943018370470187DB
:100D3000704781847047028B4FF6F3731A40028329
:100D4000028B0A4302837047028B4FF2FF331A4033
:100D50000283028B4FF6FF7303EA01231A430283D7
:100D60007047828B4FF6F3731A408283828B0A435B
:100D700082837047828B4FF2FF331A408283828BCB
:100D80004FF6FF7303EA01231A4382837047000082
:100D9000002202881D4B98420ED01D4B98420BD06A
:100DA000B0F1804F08D01B4B984205D01A4B9842A7
:100DB00002D01A4B984204D14FF68F731A404B88D9
:100DC0001A43174B984207D0164B984204D04FF65F
:100DD000FF431A40CB881A4302808B8883850B8897
:100DE00003850A4B98420BD0094B984208D00E4B12
:100DF000984205D00D4B984202D00D4B984201D13C
:100E00000B7A03860123838270470000002C014087
:100E1000003401400004004000080040000C004085
:100E20000010004000140040004001400044014018
:100E30000048014010B540F225511D4800F04AF825
:100E400010B31B4800F002F9C4B21A48008800F43D
:100E50000040C8B91748008800F4804060B10A2CEF
:100E600003D000201349088020E01248008840F495
:100E700000401049088019E00D2C06D10D4800886B
:100E800040F480400B49088010E00A480088C0F315
:100E90000D0009490C5407480088401C054908808A
:100EA00008460088C72801DD0020088010BD00002A
:100EB00000380140200000203800002021B1828944
:100EC00042F40052828104E082894DF6FF731A4099
:100ED0008281704770B5024600240023002500205F
:100EE00040F66A16B14200D100BFC1F3421501F0CD
:100EF0001F03012606FA03F3012D02D19689334020
:100F000006E0022D02D1168A334001E0968A334072
:100F10000C12012606FA04F41688344013B10CB101
:100F2000012000E0002070BDF0B50346002400263B
:100F30000025002040F66A17B94200D100BF1846CC
:100F4000C1F3421401F01F06012707FA06F5012C30
:100F500001D10C3004E0022C01D1103000E014303B
:100F60001AB107682F43076002E00768AF430760C4
:100F7000F0BD00002DE9F04786B005460E4600247E
:100F8000A24600BFA1460027B08900B100BF2F468E
:100F90002C8A4CF6FF700440F08804432C82AC8904
:100FA0004EF6F3100440B088318908437189084334
:100FB0000443AC81AC8A4FF6FF400440B08904433F
:100FC000AC8201A8FFF758FB1F48874202D1DDF829
:100FD00010A001E0DDF80CA0A88900F4004040B1A9
:100FE0000AEBCA0000EB0A1031684900B0FBF1F8C7
:100FF00007E00AEBCA0000EB0A1031688900B0FB79
:10100000F1F86420B8FBF0F004012009642101FB31
:101010001089A88900F4004040B1322000EBC900DB
:10102000B0FBF1F000F00700044308E0322000EBD1
:1010300009106421B0FBF1F000F00F0004432C8193
:1010400006B0BDE8F08700000038014001468888FE
:10105000C0F30800704700BFFEE700BF7047000004
:1010600010B56FF00400FFF7E7FB0A4800680A4973
:10107000B0FBF1F0094908700846007800EB400128
:10108000C1EBC0104FF6FF7101EAC00004490880AF
:1010900010BD00000000002000127A0016000020A1
:1010A0001800002000BF054A128802F04002002A02
:1010B000F9D0C2B2014B1B1D1A80704700380140A5
:1010C0000146888C47F6FF728A847047FFF7C8FF95
:1010D0004FF4A060FFF7A4FA4FF4E13000F054F9A8
:1010E000642242F22731002000F0C6F8002000F010
:1010F0006FF841F61F41642000F010F933E01A4800
:10110000008800F4004000282DD017480088C0F364
:101110000D0516A0FFF780F8002600240BE02146FD
:10112000284600F041F81649095D303901FB00609E
:1011300086B2601C84B2AC42F1DB314611A0FFF7ED
:101140006BF831461148FFF7F2FD11480088A0F511
:10115000FE41FF390FA0FFF75FF811A0FFF75CF821
:10116000002001490880CAE7200000200D0AC4FAC7
:10117000B7A2CBCDB5C4D6B5CEAA3A0D0A0D0A009A
:10118000380000200A0D2564000000000004004023
:101190001400002073706565642069732025640065
:1011A0000D0A0D0A0000000070B502460023012060
:1011B000551A6D1EACB200BF07E000EB80054FF67C
:1011C000FF7606EA45005D1CABB2A342F5DB70BDBD
:1011D00010B588B0044601210D20FFF73DFA01212A
:1011E0000846FFF729FA0020ADF81600ADF8120006
:1011F0004FF6FF70ADF81400A0B2ADF8100004A9CE
:101200004FF08040FFF7C4FD04208DF81F0003203D
:101210008DF81E00ADF81C0007A91548FFF737F937
:1012200000231A4603214FF08040FFF78FFC002077
:10123000ADF80C0001A90F48FFF7BAFC00214FF0F0
:101240008040FFF776FD01218807FFF76DFC012242
:1012500011469007FFF702FD01218807FFF76AFC9E
:1012600047F6FF704FF08041888408B010BD000041
:1012700000080140000C004070B588B004460E46DE
:10128000154601210D20FFF7E7F901210220FFF7A4
:10129000D3F90020ADF81600ADF81200B0B2ADF8E9
:1012A0001400A0B2ADF8100004A91648FFF770FDB5
:1012B00018208DF81F0003208DF81E008020ADF847
:1012C0001C0007A91048FFF7E2F87020ADF80000F5
:1012D0000120ADF80200ADF806500020ADF808007E
:1012E0004FF48070ADF80C0069460648FFF7C0FC6B
:1012F00008210448FFF70EFD01210248FFF71AFC00
:1013000008B070BD000400400008014000B503466D
:101310004FF08040FFF7D4FE188000BD7FB5044633
:101320000D4601210D20FFF797F901210820FFF755
:1013300083F90020ADF80A00ADF80600A8B2ADF8B8
:101340000800ADF8044001A90D48FFF721FD012276
:1013500011460C48FFF782FC32208DF80000012076
:101360008DF8030003208DF8010001208DF80100A5
:101370006846FFF71DF901210248FFF7DBFB7FBD3F
:10138000002C0140000C004010B586B0044601213D
:1013900044F20400FFF760F94FF40070ADF8140058
:1013A00003208DF8160018208DF8170005A91C4899
:1013B000FFF76DF84FF48060ADF8140004208DF84D
:1013C000170005A91648FFF762F825208DF80000E0
:1013D00003208DF801008DF8020001208DF8030034
:1013E0006846FFF7E5F801940020ADF80800ADF875
:1013F0000A00ADF80C00ADF810000C20ADF80E009E
:1014000001A90848FFF7B6FD012240F22551054821
:10141000FFF78AFD01210348FFF750FD06B010BD1C
:101420000008014000380140481400080000002076
:10143000380000006C01000880140008380000200B
:10144000280700008801000800A24A0400000000EC
:101450000000000001020304060708090000000064
:101460000000000000000000000000000000010279
:101470000304010203040607080902040608000029
:04000005080001D519
:00000001FF
