:020000040800F2
:1000000058080020ED010008B9140008B1140008D8
:10001000B514000803130008472200080000000080
:100020000000000000000000000000005916000859
:100030000713000800000000411500086D170008B4
:10004000070200080702000807020008070200086C
:10005000070200080702000807020008070200085C
:10006000070200080702000807020008070200084C
:10007000070200080702000807020008070200083C
:10008000070200080702000807020008070200082C
:10009000070200080702000807020008070200081C
:1000A000070200080702000807020008070200080C
:1000B00007020008070200080702000807020008FC
:1000C00007020008070200080702000807020008EC
:1000D00007020008E51E00086D1F0008070200085F
:1000E00007020008070200080702000807020008CC
:1000F00007020008070200080702000807020008BC
:1001000007020008070200080702000807020008AB
:100110000702000807020008111A00080702000879
:10012000070200080702000807020008070200088B
:1001300000F002F800F04AF80AA090E8000C8244AF
:100140008344AAF10107DA4501D100F03FF8AFF28C
:10015000090EBAE80F0013F0010F18BFFB1A43F0A5
:10016000010318478C2F0000AC2F0000103A24BF69
:1001700078C878C1FAD8520724BF30C830C144BF0C
:1001800004680C607047000000230024002500264E
:10019000103A28BF78C1FBD8520728BF30C148BFEA
:1001A0000B607047662902F05687642900F0808052
:1001B000002070471FB500F065FB040000200021FF
:1001C00002F020FDE0601FBD10B510BD00F072FC14
:1001D0001146FFF7EFFF02F0D5F800F090FC03B4F2
:1001E000FFF7F2FF03BC02F044F800000948804723
:1001F00009480047FEE7FEE7FEE7FEE7FEE7FEE709
:10020000FEE7FEE7FEE7FEE704480549054A064B20
:1002100070470000711700083101000858020020E3
:10022000580800205804002058040020704700009F
:100230000FB4044910B503AA029800F011FB10BCDA
:100240005DF814FB480000202DE9F0410E460446FD
:10025000002020622046E168884730B3252805D079
:10026000D4E901219047206A401CF2E7E16820466A
:1002700000278847050018D0A5F14100192802D8A9
:1002800020354FF400673246294620462760FFF7A5
:1002900089FF40B1012804D0F61D26F00706083674
:1002A000D8E7361DD6E72846DAE7206ABDE8F081B0
:1002B0002DE9F0410646002410687529314616A53F
:1002C00010D0AFF30080002802DA404213A507E007
:1002D00031688A0701D512A502E0490704D511A5A6
:1002E000012401E0AFF3008000210A2206F1240777
:1002F00009E0B0FBF2FCB0FBF2F302FB1C00303073
:1003000078541846491C0028F3D123462A46304623
:10031000BDE8F04100F03EB8000000002D000000F4
:100320002B0000002000000010B5203AC0F00B8028
:10033000B1E81850203AA0E81850B1E81850A0E8E9
:100340001850BFF4F5AF5FEA027C24BFB1E8185043
:10035000A0E8185044BF18C918C0BDE810405FEAB3
:10036000827C24BF51F8043B40F8043B08BF70472F
:10037000D20728BF31F8023B48BF11F8012B28BF34
:1003800020F8023B48BF00F8012B704770477047C8
:10039000704770472DE9F0470D469946924604464E
:1003A00000F124080168880604D5E06921F01001F5
:1003B000216000E00120A84201DD471B00E000278A
:1003C000A1697A1902EB0900081AA0612078C00619
:1003D00002D42046AFF30080002608E0D4E90121D2
:1003E0001AF806009047206A401C761C20624E4591
:1003F000F4DB2078C0060AD52046AFF3008006E083
:10040000D4E9012130209047206A401C2062381E28
:10041000A7F10107F4DC07E0D4E9012118F8050091
:100420009047206A401C2062281EA5F10105F3DCDC
:100430002046AFF300802078000602D50220BDE8F8
:10044000F0870120FBE770472DE9FF4F0C461E4661
:100450004FF0FF378BB0D2E90001DDF860800A90E1
:100460008A46C1F30A5505B93D46002108464FF0BA
:100470000000BAF1000F00F4400005DA00EB800044
:100480004FF4400101EA50004FEA9059B9F1010FD1
:1004900000DDB9460A9850EA4A000ED044F61050E2
:1004A000A5F2FF3545432F14B8F1000F1ED0754259
:1004B000291E1EDDC9F100021CE0B8F1010F4FF04A
:1004C000000001D0302103E0F24305E02154401C3C
:1004D000B042FBDB30460022002121540B99C1F8C9
:1004E0000880C1E900200FB0BDE8F08FBD1B6D1C76
:1004F000DEE74A4600DA694206A800F065FA06AB74
:1005000093E8070003AB83E8070050460A9900F020
:100510003DFB8DE80700A0F500501F3800900398C0
:10052000002D09DD42F21F014A46084403A9039049
:10053000684600F09CFD08E0A0F500504A461F38D0
:1005400003A90390684600F0A6FD8DE807000004AB
:10055000000C03D04FF0FF30410800E01046B8F126
:10056000000F03D00022009215461EE0751E05D430
:1005700000F08CF9303262556D1EF9D5B346012278
:10058000084302D000227F1C04E02078302801D1EB
:1005900000227F1E002A099786D01DE0112D07DA60
:1005A00000F074F9303262556D1C50EA0102F5D149
:1005B000084302D00098C8B10EE00021681E05E093
:1005C000235C625C63542254401E491C8142F7DB69
:1005D000AB46A81B401E0990002004F80B000B98A6
:1005E000099AC0F80880C0E9002B7CE711264FF07B
:1005F000000859E72DE9F04F88460446D21D22F045
:10060000070191B0D1E90001CDE90A0101F01DFE19
:1006100002460B98C00F01D02D2007E0206881070B
:1006200001D52B2002E0202101EAC000032A099015
:1006300001D0072A05DB03464146204600F084F935
:100640000BE12078800601D5E06900E00620B8F1D2
:10065000650F814606D0B8F1660F18D0B8F1670F64
:1006600070D131E00020B9F1110F009001DB1123AE
:1006700001E009F101030AAA01A90CA8FFF7E4FEB1
:10068000DDE90C70002609F10105834647E00120F1
:100690004B4600904FF000470AAA01A90CA8FFF7AB
:1006A000D3FEDDE90DB00C995D46002610B909F1C5
:1006B00001000D18B9EB050003D4C0F1FF3609F1B4
:1006C0000105A5EB09002BE0B9F1010F01DA4FF0AC
:1006D00001090020B9F1110F0090484601DD1123F6
:1006E00000E003460AAA01A90CA8FFF7ADFEDDE968
:1006F0000C704D4600268346207800070AD4AB458F
:1007000000DA5D4601A8012D04DD411911F8011C34
:10071000302907D04F4502DA17F1040F04DA01201F
:1007200082460FE06D1EEEE7002F02DCED1B3E441B
:1007300003E0781CA84200DD7D1CB81B00F1010A13
:100740004FF000472078000703D4AA4501DB4FF0A3
:10075000FF3A0021B7F1004F0DF143088DF8431027
:1007600024D002202B23002F01DA7F422D230A21DF
:10077000021EA0F1010000DC5FB197FBF1FC97FBCA
:10078000F1F201FB1C7C17460CF1300C08F801CD8E
:10079000EEE7A8F1010003702188090501D5452184
:1007A00000E06521A0F1010800F8011C09980FA9DB
:1007B000A1EB0807FF1D00B10120411901EBEA7010
:1007C000A1693844081A401EA0612078C00602D4EE
:1007D0002046AFF30080099828B1D4E90121904761
:1007E000206A401C20622078C00622D52046AFF344
:1007F00000801EE0002E04DBB34502DD01A8805D11
:1008000000E03020D4E901219047206A401C20629A
:10081000761CAAF101005FEA000A0AD100F032F862
:10082000C0680168405CD4E901219047206A401CFF
:100830002062281EA5F10105DCDC07E0D4E90121D6
:1008400018F8010B9047206A401C2062381EA7F15F
:100850000107F3DC2046AFF30080032011B043E62C
:10086000074B70B50D467B4400F05BF80446284604
:1008700000F018F910B14FF0FF3070BD204670BD88
:10088000EB1A0000004870471402002030B5B0F1A8
:100890000A024FEA900E71F100034EEA817EB0EB3E
:1008A0000E0061EB91014FEA101E4EEA017E10EB43
:1008B0000E0041EB11114FEA102E4EEA016E10EBC3
:1008C0000E0041EB11214FEA104E4EEA014E10EBA3
:1008D0000E0041EB1141401841F100014FEAD000F8
:1008E00040EA41704FEAD10110EB80054FEA8104E4
:1008F00044EA907444EB01046D1944EB0404521B68
:10090000A3414FF0000348BF0A3200D530BD401C60
:1009100041F1000130BD000001694A1C0261087804
:10092000704700B58FB0CDE901310021059105492F
:100930007944CDE9031011466846FFF785FC0FB0F6
:1009400000BD0000E5FFFFFF2DE9F0411F46044612
:1009500003260168072A01F4006004DB08B116A52C
:1009600005E016A503E008B115A500E015A521F0E6
:1009700010002060A069C01EA0610FB1401EA061E0
:100980002046AFF300804FB1D4E9012138469047AB
:10099000206A401C2062C01C206206E0206AFAE740
:1009A000D4E9012115F8010B9047761EF8D22046B4
:1009B000AFF30080BDE8F0814E414E006E616E00E5
:1009C000494E4600696E66002DE9F047814616469D
:1009D0008AB0334878440DC88DE80D00304878441B
:1009E000801C03AC0DC884E80D0041F69B30084420
:1009F000372190FBF1F290FBF1F5A5F1800501FBA9
:100A000012041B3C02D56442012000E00020DFF804
:100A100090A080460027FA44AAF1BE0A0DE0E00744
:100A200009D03246684607EB47010AEB810100F026
:100A300032FB8DE8070064107F1C002CEFD1184FAB
:100A40007F44AC3F18E0E80714D007EB04100DF129
:100A5000180A90E80E008AE80E00C068F04201D142
:100A600098190890324606A903A800F014FB03ABBE
:100A700083E807006D10641C002DE4D132466946FE
:100A8000B8F1000F03A802D000F0F1FA01E000F085
:100A900002FBC9E90001C9F808200AB0BDE8F087E7
:100AA00000270000007B00F080007047004870477E
:100AB000F40100207546FFF7F9FFAE4605006946D0
:100AC000534620F00700854618B020B5FFF79CFB81
:100AD000BDE820404FF000064FF000074FF000083F
:100AE0004FF0000B21F00701AC46ACE8C009ACE8C0
:100AF000C009ACE8C009ACE8C0098D46704704469F
:100B0000AFF300802046FFF76AFB00004FF0013C86
:100B100050F8042B51F8043B9A4221D1A2EB0C036C
:100B2000934313EACC1317D150F8042B51F8043B2C
:100B30009A4215D1A2EB0C03934313EACC130BD1C9
:100B400050F8042B51F8043B9A4209D1A2EB0C0354
:100B5000934313EACC13DBD04FF00000704700BF83
:100B6000D01A01BAB1FA81F101F0180122FA01F0AC
:100B7000CB40C1F12001DBB2C0B2C01A2CFA01F3A4
:100B8000D11A914311EAC311E6D170475FEA400CD4
:100B900008BF91F0000F4FEA8C234FEAC12243EACD
:100BA00051514FEA1C5018BF00F5F0404FEA300099
:100BB00018BF41F000415FEA6C5C00F02980BCF195
:100BC000FF3F08BF40F080407047130C06BF12047F
:100BD0004FF0100C4FF0000C130E04BF12020CF17A
:100BE000080C130F04BF12010CF1040C930F04BF87
:100BF00092000CF1020CD30F04BF52000CF1010C57
:100C000011464FF00002A0F11F00A0EB0C0070474E
:100C100011F0004F08BF704731F000413FF4D5AFED
:100C20000B0C06BF09044FF0100C4FF0000C0B0E1C
:100C300004BF09020CF1080C0B0F04BF09010CF1F1
:100C4000040C8B0F04BF89000CF1020CCB0F04BF06
:100C500049000CF1010CCCF12003A0EB0C0022FAAE
:100C600003F302FA0CF241EA030100F101007047BC
:100C700020F07F4C80EA030023F07F47ACEB0703B2
:100C800003F57C5300F0004003F1FF032DE9804998
:100C90004FEA154B09B44FEA144325EA0B4E24EAF8
:100CA00003480FF2042606EB132749083E785FEA53
:100CB000320203FB0667C7F5000707FB06F64FEA9B
:100CC00054374FEAD64606F1020607FB066CCCF114
:100CD000005C4FEA1C472CEA074C07FB06F40CFBB0
:100CE00006F504EB15464FEA961634BF00204FF088
:100CF00000404FEAD13706FB07FC4FEA1C4C0CFBC7
:100D00000BF7D21B03FB0CF761EB07010CFB0EF793
:100D1000B0EB074072EB17420CFB08F734BFA2EBB5
:100D20000742B2EB074261EB17414FEA0C444FEA2E
:100D3000910706FB07FC4FEA1C4C0CFB0BF7B0EBD2
:100D4000C74072EB573203FB0CF734BFA2EBC7422C
:100D5000B2EBC74261EB57310CFB0EF7B0EBC700AB
:100D600072EB57720CFB08F734BFA2EBC702B2EB71
:100D7000C70261EB5771039F4FEA816141EA92110B
:100D800004EBCC044FEAD1374FEA826206FB07FC42
:100D900042EA90124FEA80604FEA1C4C0CFB0BF7C2
:100DA000D21B03FB0CF761EB07010CFB0EF7B0EB5A
:100DB000074072EB17420CFB08F734BFA2EB074267
:100DC000B2EB074261EB17414FEA8C554FEA9107AE
:100DD00004EB9C2406FB07FC4FEA1C4C0CFB0BF7B6
:100DE000B0EBC74072EB573203FB0CF734BFA2EBFA
:100DF000C742B2EBC74261EB57310CFB0EF7B0EBC9
:100E0000C70072EB57720CFB08F734BFA2EBC702A6
:100E1000B2EBC70261EB577115EB4C254FEA8161CC
:100E200041EA92114FEA82624FEAD13742EA9012C8
:100E300006FB07FC44F100044FEA80604FEA1C4CBB
:100E40000CFB0BF7D21B03FB0CF761EB07010CFB50
:100E50000EF7B0EB074072EB17420CFB08F734BFFC
:100E6000A2EB0742B2EB074261EB174115EB1C15F1
:100E70004FEA813141EA92414FEA823242EA90429E
:100E80004FEA80304FEA0C7644F1000448EA03430D
:100E90004EEA0B484FF0000EB2EB080C71EB030763
:100EA00024BF624639464EEB0E0E4FF0000B001881
:100EB000524149414BEB0B0BB2EB080C71EB0307B2
:100EC0007BF1000B24BF624639464EEB0E0E4FF00D
:100ED000000B0018524149414BEB0B0BB2EB080CD5
:100EE00071EB03077BF1000B24BF624639464EEBE2
:100EF0000E0E51EA020718BF46F0010616EB0E76F9
:100F000055F1000254F1000103D5BDE88901BDE8A7
:100F10000088BDE88901BDE80048B619524141EB9F
:100F20000101A3F10103704780807F7E7D7C7B7A85
:100F30007978777676757473727171706F6E6E6D85
:100F40006C6C6B6A6A69686867666665646463632B
:100F500062616160605F5F5E5E5D5D5C5C5B5B5AB1
:100F60005A5959585857575656555555545453531E
:100F700052525251515050504F4F4F4E4E4D4D4D79
:100F80004C4C4C4B4B4B4A4A4A49494948484847C4
:100F90004747474646464545454444444443434302
:100FA0004342424242414141002B26D4770021D0A6
:100FB0001CB54FEA370703B44FF010004FF0100193
:100FC0004FF000000FBCBDE810400BF1010BBBF16E
:100FD000010F08BF5FEA170722BF12F1010211F1EA
:100FE00001014FF0004143F1000300F0004043EAEB
:100FF00000007047F9D35708DAE746EA064613F1CE
:10100000400F4FEA16461FDD13F1200FDFBF1643D6
:101010000A46002120335B42C8D0C3F1200746EACC
:10102000064602FA07F74FEA164646EA0706C3F1F4
:10103000200722FA03F201FA07F721FA03F14FF031
:10104000000342EA0702B1E746EA020646EA06461C
:101050004FEA164646EA0106BCBF46EA0646360C8B
:101060004FF000034FF000024FF000019EE72DE922
:10107000C048934630B491E8380007C831EA400CC4
:1010800048BF34EA430C03D5FFF7F2FDFFF78CFFAE
:10109000F0BCBDE800882DE9C048934630B491E823
:1010A000380007C810F0804F08BF13F0804F03D1FD
:1010B00000F005F8FFF778FFF0BCBDE8008820F0ED
:1010C0007F4780EA030023F07F4C07EB0C03A3F576
:1010D0007C5300F00040A3F1FE0392F0000F00F0FB
:1010E000B38095F0000F00F077802DE901494FEAB9
:1010F00011404FEA144621EA004800FB06FC24EAAE
:10110000064708FB06F607FB08F800FB07F718EB95
:1011100006484CEB164C4FEA124B18EB07484FEAC7
:1011200015464CEB174022EA0B4E0BFB06FC25EA5A
:1011300006470EFB06F607FB0EFE0BFB07F71EEB42
:10114000064E4CEB164C4FF000061EEB074E4CEBD8
:10115000174B18EB0B0840F1000018EB0E0B58EB87
:10116000000840F100008F1A4FF000013CBFC94356
:10117000661B14BFB5EB040C00213CBFC943F61B32
:101180004FEA17444EEA8E0E27EA04454FEA1C4701
:1011900004FB07622CEA074C05FB07F70CFB05F67E
:1011A00004FB0CFC16EB074642EB174216EB0C4611
:1011B00042EB1C421BEB060658EB0202414146EA99
:1011C0009E0601D5BDE80189B619524141EB0101E6
:1011D000A3F10103BDE801894FEA14454FEA114725
:1011E00024EA054621EA074C05FB07F406FB07F74E
:1011F0000CFB06F105FB0CFC11EB074144EB17441B
:101200004FEA124711EB0C4144EB1C4422EA074C15
:1012100005FB07F206FB07F70CFB06F605FB0CFCCB
:1012200016EB074642EB174216EB0C4642EB1C4509
:101230006A1854F1000148BF7047B619524141EB9A
:101240000101A3F10103704795F0000F37D04FEA79
:1012500011424FEA144721EA024624EA074C02FBF6
:1012600007F106FB07F70CFB06F402FB0CFC14EB82
:10127000074441EB17414FEA154714EB0C4441EB8F
:101280001C4125EA074C02FB07F506FB07F70CFBA0
:1012900006F602FB0CFC16EB074645EB174516EB72
:1012A0000C4645EB1C42121951F1000148BF704732
:1012B000B619524141EB0101A3F1010370474FEA16
:1012C00014454FEA114724EA054621EA074C05FB7D
:1012D00007F106FB07F70CFB06F24FF0000605FBD3
:1012E0000CFC12EB074241EB174112EB0C4251EBA5
:1012F0001C4148BF7047921841EB0101A3F1010363
:10130000704700BFFEE770472DE9F0410246002517
:101310000026002000230024002791F803C00CF0D1
:101320000F0591F803C00CF0100CBCF1000F03D0B6
:1013300091F802C04CEA050591F800C0BCF1000F1D
:1013400031D0146800202BE04FF0010C0CFA00F3B0
:10135000B1F800C00CEA03069E4220D183004FF092
:101360000F0C0CFA03F7BC4305FA03FC4CEA040427
:1013700091F803C0BCF1280F06D14FF0010C0CFA14
:1013800000FCC2F814C00AE091F803C0BCF1480F99
:1013900005D14FF0010C0CFA00FCC2F810C0401C43
:1013A0000828D1D31460B1F800C0BCF1FF0F34DDC0
:1013B000546800202EE000F1080C4FF0010808FAF4
:1013C0000CF3B1F800C00CEA03069E4221D1830061
:1013D0004FF00F0C0CFA03F7BC4305FA03FC4CEA80
:1013E000040491F803C0BCF1280F05D100F1080CEA
:1013F00008FA0CF8C2F8148091F803C0BCF1480F49
:1014000007D100F1080C4FF0010808FA0CF8C2F8F7
:101410001080401C0828CED35460BDE8F081000045
:10142000F0B50A46002300240021002500F0004604
:10143000B6F1004F02D11D4EF16901E01B4E7168FB
:10144000C0F3034583B200F44016B6F5401F08D13F
:1014500021F07061154E766826F07066134F7E603D
:1014600012E000F48016B6F5801F06D1032606FAB6
:1014700005F4A14341F0706106E0460D360103FA20
:1014800006F6B14341F0706122B1460D360103FA10
:1014900006F6314300F00046B6F1004F02D1034E8C
:1014A000F16101E0014E7160F0BD000000000140FB
:1014B00000BFFEE700BFFEE77047000070B50021E7
:1014C00000230F22C47804B3154C246804F4E064AC
:1014D000C4F5E064210AC1F10403CA40447804FA67
:1014E00003F184781440214309010E4C0678A1557C
:1014F000047804F01F050124AC4005786D11AD009F
:1015000005F1E025C5F8004109E0047804F01F0565
:101510000124AC40044D0678761145F8264070BD94
:101520000CED00E000E400E080E100E0024901434E
:10153000024A1160704700000000FA050CED00E05F
:101540007047000029B1064AD2690243044BDA61B0
:1015500004E0034AD2698243014BDA61704700001C
:101560000010024029B1064A92690243044B9A6175
:1015700004E0034A92698243014B9A61704700007C
:101580000010024030B500210022002400232D4D20
:101590006D6805F00C0121B1042905D0082923D17B
:1015A00005E0294D056022E0274D05601FE0254D2F
:1015B0006D6805F47012234D6D6805F480340225C2
:1015C00005EB92421CB9214D554305600BE01D4DC2
:1015D0006D6805F400351DB11C4D5543056002E0F2
:1015E000194D5543056002E0174D056000BF00BF6F
:1015F000144D6D6805F0F0010909154D6B5C056827
:10160000DD4045600F4D6D6805F4E061090A104D3D
:101610006B5C4568DD4085600A4D6D6805F460517E
:10162000C90A0B4D6B5C4568DD40C560054D6D68B2
:1016300005F44041890B074D6B5CC568B5FBF3F5BC
:10164000056130BD0010024000127A0000093D0023
:101650005000002060000020704710B500F002F834
:1016600010BD00000CB500200190009033480068C8
:1016700040F480303149086000BF3048006800F411
:10168000003000900198401C0190009818B9019812
:10169000B0F5A06FF1D12948006800F4003010B116
:1016A0000120009001E0002000900098012843D123
:1016B0002348006840F0100021490860084600688F
:1016C00020F0030008600846006840F0020008604F
:1016D0001A4840681949486008464068486008460A
:1016E000406840F4806048600846406820F47C1000
:1016F00048600846406840F4E810486008460068C2
:1017000040F08070086000BF0C48006800F0007076
:101710000028F9D00948406820F0030007494860D4
:101720000846406840F00200486000BF0348406837
:1017300000F00C000828F9D10CBD00000010024098
:1017400000200240042808D14FF0E021096941F04F
:1017500004014FF0E022116107E04FF0E021096938
:1017600021F004014FF0E022116170477047000042
:1017700010B51348006840F00100114908600846A0
:101780004068104908400E494860084600680E4904
:1017900008400B4908600846006820F48020086073
:1017A0000846406820F4FE0048604FF41F0088603F
:1017B000FFF753FF4FF000600449086010BD0000C0
:1017C000001002400000FFF8FFFFF6FE08ED00E009
:1017D000F0B50C46154600220021068C4FF6FE7728
:1017E0003E400684028B018C4FF60C7632407E1C04
:1017F00006EA03162E433243104EB0420ED0104E6E
:10180000B0420BD0B0F1804F08D00E4EB04205D0A0
:101810000D4EB04202D00D4EB04206D14FF6FD76CD
:10182000314044F00106314305E04FF6F576314092
:1018300044F00106314302830184F0BD002C0140D5
:10184000003401400004004000080040000C00404B
:10185000F0B50C461546002200210026078C4FF6F5
:10186000EF7C07EA0C070784028B018C4FF6FF77A9
:1018700007EA041640F6FF473A404FF6FF7707EABB
:1018800003373A434FF6FF7707EA05273A43114FEC
:10189000B8420ED0104FB8420BD0B0F1804F08D0F4
:1018A0000E4FB84205D00E4FB84202D00D4FB8428D
:1018B00006D14FF6DF77394046F01007394305E08F
:1018C0004FF65F77394044F01007394302830184B3
:1018D000F0BD0000002C0140003401400004004035
:1018E00000080040000C0040F0B50C4615460022F0
:1018F00000210026078C4FF6FF6C07EA0C070784CF
:10190000828B018C4FF6FF7707EA04264FF60C779F
:101910003A404FF6FF7707EA03172F433A43114F38
:10192000B8420ED0104FB8420BD0B0F1804F08D063
:101930000E4FB84205D00E4FB84202D00D4FB842FC
:1019400006D14FF6FF57394046F48077394305E01A
:101950004FF2FF57394044F4807739438283018442
:10196000F0BD0000002C01400034014000040040A4
:1019700000080040000C0040F0B50C46154600225F
:1019800000210026078C4EF6FF7C07EA0C0707842F
:10199000828B018C4FF6FF7707EA043640F6FF474B
:1019A0003A404FF6FF7707EA05273A434FF6FF77AD
:1019B00007EA03373A43114FB8420ED0104FB842EE
:1019C0000BD0B0F1804F08D00E4FB84205D00E4F6B
:1019D000B84202D00D4FB84206D14DF6FF773940DC
:1019E00046F48057394305E047F6FF57394044F441
:1019F0008057394382830184F0BD0000002C0140F0
:101A0000003401400004004000080040000C004089
:101A100010B50121144800F070F820B31348018874
:101A200013A0FEF705FC4FF08041104800F038FF8E
:101A30000E48008801F0B0F9044600F039FF0B4869
:101A400001880FA0FEF7F4FB1149084800F028FFB9
:101A50000648008801F0A0F9044600F0A9FF012122
:101A6000014800F01AF810BD0010004014000020DA
:101A70004C20737065656420697320256400000044
:101A8000522073706565642069732025640000002E
:101A9000002C0140CA4302827047CA430282704749
:101AA00021B1028842F00102028004E002884FF670
:101AB000FE731A4002807047F0B50C4615461E466C
:101AC0000021002200230189028B038C4FF6F87756
:101AD000394021434FF6FC473A4040F201173A4360
:101AE0004FF6DD773B404FF6FF7707EA06172F43A7
:101AF0003B43018102830384F0BD30B502460020E0
:101B000000230024158A05EA0103958905EA0104EA
:101B100013B10CB1012000E0002030BD70B50546C6
:101B20000C46244885420ED0234885420BD0B5F19F
:101B3000804F08D02148854205D02148854202D0F7
:101B40002048854200D100E000BF208850B9238999
:101B5000A28861882846FFF73BFEE188284600F00E
:101B600042F925E0208804280AD12389A2886188C7
:101B70002846FFF76DFEE188284600F03DF917E0A2
:101B8000208808280AD12389A28861882846FFF77F
:101B9000ABFEE188284600F03CF909E02389A288E1
:101BA00061882846FFF7E8FEE188284600F03AF908
:101BB00070BD0000002C01400034014000040040D2
:101BC00000080040000C00401AB183890B43838158
:101BD00002E083898B4383817047000070B5002445
:101BE00000220023058C4FF6FE7635400584028CDA
:101BF0008388048B4FF68F752C40B51E2C400D88C2
:101C00002C43751E2A400D892A434D882A43144DC2
:101C1000A8420BD0134DA84208D0134DA84205D0BE
:101C2000124DA84202D0124DA84213D14FF6F775BB
:101C30002A404D892A434FF6FB752A408D882A4356
:101C40004FF6FF652B404FF6FF552B408D892B43F8
:101C5000CD892B4383800483CD888586028470BD23
:101C6000002C01400034014000400140004401408C
:101C7000004801400A460021018B4FF6F7731940D6
:101C8000114301837047000070B500240022002337
:101C9000058C4FF6EF7635400584028C8388048BE3
:101CA00048F6FF752C404FF6FF452C400D884FF647
:101CB000FF7606EA05252C434FF6DF752A400D898D
:101CC00006EA05152A434D8806EA05152A43154DEF
:101CD000A84202D0144DA8421DD14FF67F752A406C
:101CE0004D894FF6FF7606EA05152A434FF6BF7574
:101CF0002A408D8806EA05152A434FF6FF352B400A
:101D00004FF2FF752B408D8906EA85052B43CD895F
:101D100006EA85052B4383800483CD8805870284EA
:101D200070BD0000002C0140003401400A46002133
:101D3000018B4FF2FF7319404FF6FF7303EA022342
:101D4000194301837047000070B50022002300246E
:101D5000058C4EF6FF7635400584038C8488828B93
:101D600048F6FF752A404FF6FF452A400D884FF68A
:101D7000FF7606EA05252A434DF6FF752B400D89AF
:101D800006EA05352B434D8806EA05352B430B4DF6
:101D9000A84202D00A4DA84208D14BF6FF752C404C
:101DA0008D894FF6FF7606EA85152C438480828361
:101DB000CD88A0F84050038470BD0000002C014085
:101DC000003401400A460021818B4FF2FF73194015
:101DD0004FF6FF7303EA022319438183704701879B
:101DE000704781847047028B4FF6F3731A40028369
:101DF000028B0A4302837047028B4FF2FF331A4073
:101E00000283028B4FF6FF7303EA01231A43028316
:101E10007047828B4FF6F3731A408283828B0A439A
:101E200082837047828B4FF2FF331A408283828B0A
:101E30004FF6FF7303EA01231A43828370470000C1
:101E4000002202881D4B98420ED01D4B98420BD0A9
:101E5000B0F1804F08D01B4B984205D01A4B9842E6
:101E600002D01A4B984204D14FF68F731A404B8818
:101E70001A43174B984207D0164B984204D04FF69E
:101E8000FF431A40CB881A4302808B8883850B88D6
:101E900003850A4B98420BD0094B984208D00E4B51
:101EA000984205D00D4B984202D00D4B984201D17B
:101EB0000B7A03860123838270470000002C0140C7
:101EC000003401400004004000080040000C0040C5
:101ED0000010004000140040004001400044014058
:101EE0000048014010B540F225511D4800F0E6F8C9
:101EF00010B31B4800F09EF9C4B21A48008800F4E1
:101F00000040C8B91748008800F4804060B10A2C2E
:101F100003D000201349088020E01248008840F4D4
:101F200000401049088019E00D2C06D10D480088AA
:101F300040F480400B49088010E00A480088C0F354
:101F40000D0009490C5407480088401C05490880C9
:101F500008460088C72801DD0020088010BD000069
:101F6000003801404C0000206400002010B540F211
:101F700025511D4800F0A2F810B31B4800F05AF993
:101F8000C4B21A48008800F40040C8B91748008855
:101F900000F4804060B10A2C03D00020134908806F
:101FA00021E01248008840F40040104908801AE0FF
:101FB0000D2C06D10D48008840F480400B49088064
:101FC00011E00A480088C0F30D0009490C54094883
:101FD0000088401C0749088004480088C72802DDA3
:101FE00000200249088010BD004400404E0000203F
:101FF000640000204C00002010B586B0044601218A
:102000002120FFF7AFFA01214804FFF79BFA0121D5
:102010000820FFF705FA18208DF8170003208DF827
:1020200016002020ADF8140005A91C48FFF76CF934
:1020300004208DF817004020ADF8140005A91748BA
:10204000FFF762F926208DF8000003208DF80100CB
:1020500005208DF8020001208DF803006846FFF787
:102060002DFA01940020ADF80800ADF80A00ADF893
:102070000C00ADF810000C20ADF80E0001A90848C6
:1020800000F06CF8012240F22551054800F040F8BC
:102090000121034800F006F806B010BD001401400D
:1020A0000044004021B1828942F40052828104E060
:1020B00082894DF6FF731A408281704770B50246DF
:1020C000002400230025002040F66A16B14200D10A
:1020D00000BFC1F3421501F01F03012606FA03F306
:1020E000012D02D19689334006E0022D02D1168AD5
:1020F000334001E0968A33400C12012606FA04F4BC
:102100001688344013B10CB1012000E0002070BDEE
:10211000F0B50346002400260025002040F66A178B
:10212000B94200D100BF1846C1F3421401F01F06A6
:10213000012707FA06F5012C01D10C3004E0022C2E
:1021400001D1103000E014301AB107682F43076046
:1021500002E00768AF430760F0BD00002DE9F047DB
:1021600086B005460E460024A24600BFA1460027C1
:10217000B08900B100BF2F462C8A4CF6FF70044096
:10218000F08804432C82AC894EF6F3100440B088EA
:1021900031890843718908430443AC81AC8A4FF606
:1021A000FF400440B0890443AC8201A8FFF7EAF97C
:1021B0001F48874202D1DDF810A001E0DDF80CA035
:1021C000A88900F4004040B10AEBCA0000EB0A10F5
:1021D00031684900B0FBF1F807E00AEBCA0000EBF8
:1021E0000A1031688900B0FBF1F86420B8FBF0F008
:1021F00004012009642101FB1089A88900F4004032
:1022000040B1322000EBC900B0FBF1F000F0070054
:10221000044308E0322000EB09106421B0FBF1F028
:1022200000F00F0004432C8106B0BDE8F0870000E9
:102230000038014001468888C0F308007047C1F3A8
:1022400008028280704700BFFEE7490050EAC120C3
:1022500018BF04204A0D18BF40F0010040F2FF7281
:10226000B2EB515F08BF40F00200012808BF052013
:10227000704700BF7047000010B56FF00400FFF713
:1022800061FA0A4800680A49B0FBF1F00949087090
:102290000846007800EB4001C1EBC0104FF6FF711B
:1022A00001EAC0000449088010BD000000000020C1
:1022B00000127A0044000020460000200146114A26
:1022C00012884A434FF0E0235A6100229A611A466D
:1022D000126942F001021A6100BF4FF0E02210695A
:1022E00000F001021AB100F48032002AF5D04FF05C
:1022F000E022126922F001024FF0E0231A6100226D
:102300009A617047460000200146114A12784A43FC
:102310004FF0E0235A6100229A611A46126942F096
:1023200001021A6100BF4FF0E022106900F00102C3
:102330001AB100F48032002AF5D04FF0E022126981
:1023400022F001024FF0E0231A6100229A617047E7
:102350004400002000BF054A128802F04002002A13
:10236000F9D0C2B2014B1B1D1A80704700380140E2
:1023700001468A8CA2F5FE42FF3A90B247F6FF7200
:102380008A84704788B043A0006807901C2242A14D
:102390006846FDF7C9FFFFF76FFF4FF4A060FFF736
:1023A000C5F84FF4E13000F0BBFB4FF4E130FFF72C
:1023B00023FE642242F22731002000F087F96422D4
:1023C00042F22731002000F0CBF9002000F0C2F8E3
:1023D000002000F023F942F2107141F61F4000F096
:1023E0006BFB3449344800F08DF84FF4877240F6A7
:1023F0000F6140F28F1000F003FA00BF48E02F4851
:10240000008800F40040002830D02C480088C0F339
:102410000D052BA0FDF70CFF002600240BE0214644
:10242000284600F083F82E49095D303901FB006031
:1024300086B2601C84B2AC42F1DB314629A0FDF7C4
:10244000F7FE304600F0A8FC80461A4900F05AF822
:1024500026480088A0F5FE41FF3925A0FDF7E8FEDB
:1024600026A0FDF7E5FE00201449088000BF4FF4C8
:10247000FA70FFF723FF002708E01B21684600F0F1
:10248000B1FB6420FFF71AFF781C87B20F2FF4DB33
:10249000B5E700000D0A000077686F77686F77680E
:1024A0006F77686F77686F77686F77686F77686F37
:1024B0000A0D00000000C8420000FA444C00002051
:1024C0000D0AEFBFBDEFBFBDEFBFBDEFBFBDEFBF9B
:1024D000BDCDB5EFBFBDD6B5CEAA3A0D0A0D0A00E7
:1024E000640000200A0D2564000000001400002094
:1024F0007370656564206973202564000D0A0D0AF8
:10250000000000000022054B1A60054B1A60054BC5
:102510001A60054A10601A461160704724000020B6
:10252000280000202C0000203000002070B502465A
:1025300000230120551A6D1EACB200BF07E000EB6E
:1025400080054FF6FF7606EA45005D1CABB2A3425C
:10255000F5DB70BD10B588B0044601210D20FFF7F2
:1025600001F801210846FEF7EDFF0020ADF8160046
:10257000ADF812004FF6FF70ADF81400A0B2ADF840
:10258000100004A94FF08040FFF75AFC01212048B9
:10259000FEF746FF04208DF81F0003208DF81E0073
:1025A0004FF40040ADF81C0007A91A48FEF7ACFE36
:1025B0000820ADF81C0007A91748FEF7A5FE002368
:1025C0001A4603214FF08040FFF776FA0A20ADF853
:1025D0000C0001A94007FFF7A1FA47F6FF714FF081
:1025E0008040FFF7FEFB01218807FFF753FA012225
:1025F00011469007FFF7E8FA01218807FFF750FA24
:1026000047F6FF704FF08041888408B010BD00008D
:102610000003180000080140000C014010B588B00C
:102620000446012140F64900FEF79CFF0020ADF86A
:102630001600ADF812004FF6FF70ADF81400A0B20E
:10264000ADF8100004A91E48FFF7FAFB01211D4850
:10265000FEF7E6FE04208DF81F0003208DF81E0013
:102660004FF42060ADF81C0007A91748FEF74CFE98
:1026700000231A4603214FF08040FFF71DFA0A207D
:10268000ADF80C0001A90E48FFF748FA47F6FF71B4
:102690000B48FFF7A6FB01210948FFF7FBF90122D0
:1026A00011460748FFF790FA01210548FFF7F8F9AE
:1026B00047F6FF7002492431088008B010BD0000C1
:1026C000002C0140C00016000018014070B588B011
:1026D00004460E46154601210520FEF743FF012161
:1026E0000820FEF72FFF0020ADF81600ADF812000D
:1026F000B0B2ADF81400A0B2ADF8100004A91648AD
:10270000FFF79EFB18208DF81F0003208DF81E0098
:102710000820ADF81C0007A91048FEF7F5FD702051
:10272000ADF800000120ADF80200ADF80650002021
:10273000ADF808004FF48070ADF80C00694606480B
:10274000FFF702FB08210448FFF73CFB0121024888
:10275000FFF7A6F908B070BD000C0040000801406A
:1027600070B588B004460E46154601211920FEF7C3
:10277000F9FE01210220FEF7E5FE0020ADF816006B
:10278000ADF81200B0B2ADF81400A0B2ADF8100070
:1027900004A91848FFF754FB18208DF81F000320E8
:1027A0008DF81E008020ADF81C0001211248FEF7B4
:1027B00037FE07A91148FEF7A7FD7020ADF800000D
:1027C0000120ADF80200ADF806500020ADF8080079
:1027D0004FF48070ADF80C0069460648FFF754FAD4
:1027E00008210448FFF7A2FA01210248FFF758F92F
:1027F00008B070BD00040040000C1A000010014039
:1028000070B588B004460E46154601212920FEF712
:10281000A9FE01210420FEF795FE0020ADF8160068
:10282000ADF81200B0B2ADF81400A0B2ADF81000CF
:1028300004A91948FFF704FB01210803FEF7F0FD86
:1028400018208DF81F0003208DF81E004FF48050D3
:10285000ADF81C0007A91148FEF756FD6020ADF841
:1028600000000120ADF80200ADF806500020ADF8E0
:1028700008004FF48070ADF80C0069460648FFF779
:10288000ADF908210448FFF7F5F901210248FFF7E7
:1028900007F908B070BD00000008004000140140B6
:1028A00010B503460C462046FFF762FD188010BDA8
:1028B0002DE9FF5F824632480168504600F04CFB2C
:1028C000044630480168204600F050FB03902D4834
:1028D00001684FF0804000F073FA0646214600F090
:1028E0003BFB054628480168284600F0D3F90290D2
:1028F000A14626480299006800F062FA0646494659
:102900002348006800F05CFA0746224803990068F3
:1029100000F056FA8046394600F0BCF905463146CB
:1029200000F0B8F983461748006817490860154851
:10293000046059461848006800F0ACF91649086070
:102940000F48006800F07AF905460E461248006804
:1029500000F074F907463A460B4610A0CDE9005640
:10296000FDF766FC0C48006880F00046304600F039
:10297000F3F985B229460D48FFF731FABDE8FF9F0C
:10298000300000202400002028000020200000202B
:102990001C000020180000202C00002072657375B8
:1029A000646C743A25662025660A0D000004004018
:1029B0002DE9FF5F824632480168504600F0CCFAAC
:1029C000044630480168204600F0D0FA03902D48B4
:1029D00001684FF0804000F0F3F90646214600F010
:1029E000BBFA054628480168284600F053F90290D2
:1029F000A14626480299006800F0E2F906464946D9
:102A00002348006800F0DCF9074622480399006873
:102A100000F0D6F98046394600F03CF905463146CB
:102A200000F038F9834617480068174908601548D0
:102A3000046059461848006800F02CF916490860EF
:102A40001648006800F0FAF805460E46144800687B
:102A500000F0F4F807463A460B4612A0CDE90056BE
:102A6000FDF7E6FB0E48006880F00046304600F0B7
:102A700073F985B229460F48FFF7B1F9BDE8FF9F0A
:102A800040000020340000203800002020000020FA
:102A90001C000020180000203C0000203000002016
:102AA0002C00002072657375646C743A25662025CD
:102AB000660A0D00000C00407FB504460D4601215A
:102AC0000D20FEF74FFD01211020FEF73BFD0020F9
:102AD000ADF80A00ADF80600A8B2ADF80800ADF8F0
:102AE000044001A90D48FFF7ABF9012211460B483C
:102AF000FFF76AF836208DF8000001208DF80300FA
:102B000003208DF8020000208DF801006846FEF7D2
:102B1000D5FC01210148FEF7C3FF7FBD0010004036
:102B200010B586B00446012144F20400FEF71AFDF8
:102B30004FF40070ADF8140003208DF81600182033
:102B40008DF8170005A91C48FEF7DEFB4FF48060E6
:102B5000ADF8140004208DF8170005A91648FEF7FB
:102B6000D3FB25208DF8000003208DF801008DF89F
:102B7000020001208DF803006846FEF79FFC0194D7
:102B80000020ADF80800ADF80A00ADF80C00ADF873
:102B900010000C20ADF80E0001A90848FFF7DEFA7E
:102BA000012240F225510548FFF7B2FA01210348FE
:102BB000FFF778FA06B010BD000801400038014068
:102BC00010B5044600BF40F227710548FFF776FABA
:102BD0000028F8D121460248FFF731FB10BD000064
:102BE0000044004070B505460E46002400BF06E0D4
:102BF000285DFFF7E5FF6420FFF786FB641CB44205
:102C0000F6D370BD10B500290AD00878002807D087
:102C100005487844FDF77AFF002801D0002010BD58
:102C20000248784410BD0000FE040000F6040000D5
:102C30000808A0F500114FEA3101704743004FEA40
:102C4000D30C4FEA3C0C43401FBF40070CF16051CE
:102C500013F0FE4F70471CF0006F03D100200CF002
:102C6000004170470CF0004343EA507010B540EA51
:102C7000CC0000F026F900BF000000924FEA0001EE
:102C8000FFF7D6BF4FF000414FF00000A1F5002143
:102C90007047000090EA010F48BF81F0004100F149
:102CA0006C81421A3CBF801A89184FEAD0524FF00B
:102CB0007F4C1CEA410FA2EBD15318BF9CEA026F74
:102CC00000F03B804FF0004C4CEA00204CEA012120
:102CD00021FA03FC10EB0C0C1ED202F1FF325FEA6A
:102CE0001C2040EBC25038BF70471CF07F0F4FEAEA
:102CF000400C18BFBCF17F4F38BF7047C3F12003B1
:102D0000994008BF20F00100BCF17F4F38BF7047E9
:102D1000A0F1C04000F01BB94FEA3C00000A40EBB4
:102D2000C25028BF1CF0FF0F4FEA400CE6D018BF7E
:102D3000BCF17F4F38BF7047EAE79CEA026F05D0CD
:102D400010EA5C0F08BF00F00040704710B500F0BB
:102D5000B8F800BF64FBBE3EC10DD1F19E0206DB98
:102D60004FEA002343F0004323FA02F07047004289
:102D700007D54FEA4001B1F1FE4F02D24FF00000FB
:102D8000704710B500F09DF84992248000207047EC
:102D90006FEA200070470000B0FA80F310FA03F2E7
:102DA000C3F19D030AD0D90501EB1220530638BFA9
:102DB000704700F1010008BF20F0010070470000DB
:102DC0004FF47F0C1CEAD0121EBF1CEAD11392EA0A
:102DD0000C0F93EA0C0F00F0478090EA010F48BFF8
:102DE00042F480724FF0004C4CEA00204CEA012182
:102DF00002EB0302A0FB0113A2F50002002918BF99
:102E000043F001035B0028BF4FEA330342EB224249
:102E10005FEA132C4CEBC2502EBFBCEB436FB2F5F4
:102E20007C0F70474FEA036CBCF1004F08BF20F0E5
:102E30000100B2F57C0F38BF70470BD582F0FF025E
:102E400012F5803FC8BF704700F1C040D8BF00F006
:102E50000040704700F5000C5FEA4C0C48BF70471B
:102E6000B0F1C04000F073B890EA010F0CEAD11342
:102E700048BF42F48072624538BF634504D280EA9D
:102E8000010000F00040704710B500F01AF800BFD4
:102E90008900013E00F007B800F009B85FEA410C74
:102EA0005FEA1C6C08D080EA010000F050B85FEACD
:102EB000400C5FEA1C6CF6D14FF00040A0F580009A
:102EC00070470EF1020E2EF0030E5EF8044B244202
:102ED00004D44FEA4102B2F17F4F11D84FEA4003C8
:102EE000B3F17F4F0CD80ED14FEAD07CB2F17F4FB7
:102EF0000CEB4C0C0CF1020C08BF4CEBD17C04E049
:102F00004FF0080C01E04FEAD17C0CEB4C0324FAA3
:102F100003F404F00704B4F1040C06D20EEB840CA5
:102F2000BDE810404CF0010C6047DFE80CF00708EA
:102F300002024FF00040A0F5800010BD084642009C
:102F400018BFD2F1807288BF00F0004010BDFF2191
:102F500041EAD050C005704780F0004090EA010F70
:102F60007FF59FAE81F0004100F007B890EA010FB5
:102F700048BF81F000413FF594AE421A04D882F078
:102F80000042A0EB020011444FEAD0524FF07F4CB8
:102F90001CEA410FA2EBD15318BF9CEA026F4AD042
:102FA0004FF0004C4CEA00204CEA012121FA03FCCE
:102FB000B0EB0C0C0FD412F0FE0F36D05FEA4C00D1
:102FC0001DD5001240EBC25038BF70471CF03F0FB8
:102FD00018BF70470BE0A2F101025FEA1C2040EB32
:102FE000C25038BF70471CF07F0F18BF7047C3F145
:102FF0002003994014BF401E20F001007047800854
:103000004FEA122308BF7047B0FA80FCA2EB0C0213
:10301000CCF1280C60FA0CF093EA122F04BF00EBFD
:10302000C25070474FEAC3707047130A5FEADC1062
:1030300008BF7047F6E79CEA026F04D010EA5C0F05
:1030400008BF0020704710B5FFF73BFF40DFF63E9A
:1030500081F000407047FDF7CDBA0000024000004B
:10306000000000A00000000005400000000000C8B3
:10307000000000000C4000000000409C0000000028
:10308000194000000020BCBE0000000034400000D9
:10309000BFC91B8E00000004B5400000504BCFD0CC
:1030A0006607E2CF010000006C4100003E8251AA99
:1030B000DFEEA73401000000D9420000DCB5A0E239
:1030C0003A301F97FFFFFFFFB4450000FD25A0C861
:1030D000E9A3C14FFFFFFFFFFF3F0000000000809A
:1030E00000000000FF3F0000000000800000000022
:1030F0002C31000800000020640000006C01000872
:103100009031000864000020F407000088010008E6
:103110001C00000043000000F8FFFFFF0C0000004F
:103120000E0000000F0000002E00000000A24A0464
:103130000000000000000000010203040607080967
:10314000000000000000003F0000803F0AD7233C41
:10315000000000000000000000000000000000006F
:10316000000000000000000000000000000000005F
:10317000000000000000000000000000000000004F
:1031800001020304010203040607080902040608F9
:04000005080001ED01
:00000001FF
