:020000040800F2
:10000000A8080020CD0100084108000839080008B0
:100010003D080008EB040008CB15000800000000B4
:10002000000000000000000000000000190A0008A5
:100030009106000800000000C90800082D0B000808
:10004000E7010008E7010008E7010008E7010008F0
:10005000E7010008E7010008E7010008E7010008E0
:10006000E7010008E7010008E7010008E7010008D0
:10007000E7010008E7010008E7010008E7010008C0
:10008000E7010008E7010008E7010008E7010008B0
:10009000E7010008E7010008E7010008E7010008A0
:1000A000E7010008E7010008E7010008E701000890
:1000B000E7010008E7010008E7010008E701000880
:1000C000E7010008E7010008E7010008E701000870
:1000D000E701000871120008F9120008E7010008A2
:1000E000E7010008E7010008E7010008E701000850
:1000F000E7010008E7010008E7010008E701000840
:10010000E7010008E7010008E7010008E70100082F
:10011000E7010008E7010008D10D0008E701000829
:10012000E7010008E7010008E7010008E70100080F
:1001300000F002F800F03AF80AA090E8000C8244BF
:100140008344AAF10107DA4501D100F02FF8AFF29C
:10015000090EBAE80F0013F0010F18BFFB1A43F0A5
:1001600001031847B4210000D4210000103A24BF35
:1001700078C878C1FAD8520724BF30C830C144BF0C
:1001800004680C607047000000230024002500264E
:10019000103A28BF78C1FBD8520728BF30C148BFEA
:1001A0000B6070471FB51FBD10B510BD00F0A0F863
:1001B0001146FFF7F7FF01F003FB00F0D2F803B49C
:1001C000FFF7F2FF03BC01F002FA00000948804784
:1001D00009480047FEE7FEE7FEE7FEE7FEE7FEE729
:1001E000FEE7FEE7FEE7FEE704480549054A064B41
:1001F00070470000310B000831010008A802002000
:10020000A8080020A8040020A804002070470000CF
:100210000FB4044910B503AA029800F03BF810BCD3
:100220005DF814FB4800002010B5203AC0F00B80A8
:10023000B1E81850203AA0E81850B1E81850A0E8EA
:100240001850BFF4F5AF5FEA027C24BFB1E8185044
:10025000A0E8185044BF18C918C0BDE810405FEAB4
:10026000827C24BF51F8043B40F8043B08BF704730
:10027000D20728BF31F8023B48BF11F8012B28BF35
:1002800020F8023B48BF00F8012B704770477047C9
:1002900070477047074B70B50D467B4400F011F86E
:1002A0000446284600F020F810B14FF0FF3070BD32
:1002B000204670BDF314000001694A1C02610878F1
:1002C000704700B58FB0CDE9013100210591054996
:1002D0007944CDE903101146684600F02EF80FB0BE
:1002E00000BD0000E5FFFFFF007B00F080007047CD
:1002F000754600F03DF8AE4605006946534620F0CD
:100300000700854618B020B5FFF76EFFBDE8204016
:100310004FF000064FF000074FF000084FF0000BC1
:1003200021F00701AC46ACE8C009ACE8C009ACE874
:10033000C009ACE8C0098D4670472DE9F04106467A
:100340000024D6E90170F5688046304603E0414656
:10035000B847641C3046A8470028F8D12046BDE8BD
:10036000F0810446AFF300802046FFF728FF00002D
:10037000004870474402002021B1826842F0010227
:10038000826003E0826822F001028260704721B13E
:10039000826842F48072826003E0826822F4807294
:1003A00082607047014600208A6802F004020AB1A8
:1003B000012000E00020704730B5024600200023F5
:1003C00050680F4C20400D790C6844EA0524204306
:1003D000506090680B4C2040D1E902542C434D7979
:1003E00044EA450420439060D06A20F470000C7CFD
:1003F000641EE4B2234340EA0350D06230BD0000E3
:10040000FFFEF0FFFDF7F1FFF0B504460D460020BA
:100410000021092D11DDE068A5F10A0606EB46076B
:10042000072606FA07F18843A5F10A0606EB4606F9
:1004300003FA06F10843E0600CE0206905EB45078C
:10044000072606FA07F1884305EB450603FA06F18D
:1004500008432061072A0FDA606B561E06EB8607F9
:100460001F2606FA07F18843561E06EB860605FA94
:1004700006F10843606322E00D2A0FDA206BD61FD5
:1004800006EB86071F2606FA07F18843D61F06EB00
:10049000860605FA06F10843206310E0E06AA2F13F
:1004A0000D0606EB86071F2606FA07F18843A2F120
:1004B0000D0606EB860605FA06F10843E062F0BD7C
:1004C000816841F008018160704721B1826842F47F
:1004D000A002826003E0826822F4A002826070477A
:1004E000816841F004018160704700BFFEE721B1DF
:1004F000026842F00102026004E002684FF6FE73F7
:100500001A4002607047000001684FF6FE72114009
:1005100001600021016041608160C1604B498842F7
:1005200008D14A490839496841F00F01474A083A59
:1005300051608AE045491431884208D1434908395D
:10054000496841F0F001414A083A51607DE03F4975
:100550002831884208D13D490839496841F4706121
:100560003A4A083A516070E038493C31884208D133
:1005700036490839496841F47041344A083A5160B3
:1005800063E032495031884208D13049083949681E
:1005900041F470212D4A083A516056E02B496431EC
:1005A000884208D129490839496841F47001274A2D
:1005B000083A516049E025497831884208D12349F9
:1005C0000839496841F07061204A083A51603CE0BE
:1005D0001F49884206D1011F096841F00F01021F1F
:1005E000116032E01A491431884208D11849091FB4
:1005F000096841F0F001164A121F116025E0144904
:100600002831884208D11249091F096841F47061F4
:100610000F4A121F116018E00D493C31884208D181
:100620000B49091F096841F47041094A121F116002
:100630000BE007495031884207D10549091F096875
:1006400041F47021024A121F1160704708000240F5
:100650000804024010B50022026847F6F0739A437E
:100660000C6A8B6823430C6923434C6923438C69D0
:100670002343CC6923434C6A23438C6A23431A43A4
:100680000260CB6843600B6883604B68C36010BD39
:1006900070472DE9F0410246002500260020002386
:1006A0000024002791F803C00CF00F0591F803C057
:1006B0000CF0100CBCF1000F03D091F802C04CEA12
:1006C000050591F800C0BCF1000F31D0146800207E
:1006D0002BE04FF0010C0CFA00F3B1F800C00CEA6B
:1006E00003069E4220D183004FF00F0C0CFA03F753
:1006F000BC4305FA03FC4CEA040491F803C0BCF1C6
:10070000280F06D14FF0010C0CFA00FCC2F814C0FF
:100710000AE091F803C0BCF1480F05D14FF0010C7D
:100720000CFA00FCC2F810C0401C0828D1D3146099
:10073000B1F800C0BCF1FF0F34DD546800202EE09A
:1007400000F1080C4FF0010808FA0CF3B1F800C0F2
:100750000CEA03069E4221D183004FF00F0C0CFAE5
:1007600003F7BC4305FA03FC4CEA040491F803C008
:10077000BCF1280F05D100F1080C08FA0CF8C2F8FA
:10078000148091F803C0BCF1480F07D100F1080CA8
:100790004FF0010808FA0CF8C2F81080401C082835
:1007A000CED35460BDE8F081F0B50A4600230024A2
:1007B0000021002500F00046B6F1004F02D11D4E89
:1007C000F16901E01B4E7168C0F3034583B200F488
:1007D0004016B6F5401F08D121F07061154E7668BD
:1007E00026F07066134F7E6012E000F48016B6F5B6
:1007F000801F06D1032606FA05F4A14341F070617B
:1008000006E0460D360103FA06F6B14341F0706189
:1008100022B1460D360103FA06F6314300F00046D8
:10082000B6F1004F02D1034EF16101E0014E71605B
:10083000F0BD00000000014000BFFEE700BFFEE782
:100840007047000070B5002100230F22C47804B364
:10085000154C246804F4E064C4F5E064210AC1F195
:100860000403CA40447804FA03F184781440214315
:1008700009010E4C0678A155047804F01F050124E7
:10088000AC4005786D11AD0005F1E025C5F80041DB
:1008900009E0047804F01F050124AC40044D0678FB
:1008A000761145F8264070BD0CED00E000E400E054
:1008B00080E100E002490143024A116070470000F4
:1008C0000000FA050CED00E0704700000146002032
:1008D000034A506820F440400843506070470000CD
:1008E0000010024029B1064A52690243044B5A6182
:1008F00004E0034A52698243014B5A617047000089
:100900000010024029B1064AD2690243044BDA6161
:1009100004E0034AD2698243014BDA617047000068
:100920000010024029B1064A92690243044B9A61C1
:1009300004E0034A92698243014B9A6170470000C8
:100940000010024030B500210022002400232D4D6C
:100950006D6805F00C0121B1042905D0082923D1C7
:1009600005E0294D056022E0274D05601FE0254D7B
:100970006D6805F47012234D6D6805F4803402250E
:1009800005EB92421CB9214D554305600BE01D4D0E
:100990006D6805F400351DB11C4D5543056002E03E
:1009A000194D5543056002E0174D056000BF00BFBB
:1009B000144D6D6805F0F0010909154D6B5C056873
:1009C000DD4045600F4D6D6805F4E061090A104D8A
:1009D0006B5C4568DD4085600A4D6D6805F46051CB
:1009E000C90A0B4D6B5C4568DD40C560054D6D68FF
:1009F00005F44041890B074D6B5CC568B5FBF3F509
:100A0000056130BD0010024000127A0000093D006F
:100A10005000002060000020704710B500F002F880
:100A200010BD00000CB50020019000903348006814
:100A300040F480303149086000BF3048006800F45D
:100A4000003000900198401C0190009818B901985E
:100A5000B0F5A06FF1D12948006800F4003010B162
:100A60000120009001E0002000900098012843D16F
:100A70002348006840F010002149086008460068DB
:100A800020F0030008600846006840F0020008609B
:100A90001A48406819494860084640684860084656
:100AA000406840F4806048600846406820F47C104C
:100AB00048600846406840F4E8104860084600680E
:100AC00040F08070086000BF0C48006800F00070C3
:100AD0000028F9D00948406820F003000749486021
:100AE0000846406840F00200486000BF0348406884
:100AF00000F00C000828F9D10CBD000000100240E5
:100B000000200240042808D14FF0E021096941F09B
:100B100004014FF0E022116107E04FF0E021096984
:100B200021F004014FF0E02211617047704700008E
:100B300010B51348006840F00100114908600846EC
:100B40004068104908400E494860084600680E4950
:100B500008400B4908600846006820F480200860BF
:100B60000846406820F4FE0048604FF41F0088608B
:100B7000FFF753FF4FF000600449086010BD00000C
:100B8000001002400000FFF8FFFFF6FE08ED00E055
:100B9000F0B50C46154600220021068C4FF6FE7774
:100BA0003E400684028B018C4FF60C7632407E1C50
:100BB00006EA03162E433243104EB0420ED0104EBA
:100BC000B0420BD0B0F1804F08D00E4EB04205D0ED
:100BD0000D4EB04202D00D4EB04206D14FF6FD761A
:100BE000314044F00106314305E04FF6F5763140DF
:100BF00044F00106314302830184F0BD002C014022
:100C0000003401400004004000080040000C004097
:100C1000F0B50C461546002200210026078C4FF641
:100C2000EF7C07EA0C070784028B018C4FF6FF77F5
:100C300007EA041640F6FF473A404FF6FF7707EA07
:100C400003373A434FF6FF7707EA05273A43114F38
:100C5000B8420ED0104FB8420BD0B0F1804F08D040
:100C60000E4FB84205D00E4FB84202D00D4FB842D9
:100C700006D14FF6DF77394046F01007394305E0DB
:100C80004FF65F77394044F01007394302830184FF
:100C9000F0BD0000002C0140003401400004004081
:100CA00000080040000C0040F0B50C46154600223C
:100CB00000210026078C4FF6FF6C07EA0C0707841B
:100CC000828B018C4FF6FF7707EA04264FF60C77EC
:100CD0003A404FF6FF7707EA03172F433A43114F85
:100CE000B8420ED0104FB8420BD0B0F1804F08D0B0
:100CF0000E4FB84205D00E4FB84202D00D4FB84249
:100D000006D14FF6FF57394046F48077394305E066
:100D10004FF2FF57394044F480773943828301848E
:100D2000F0BD0000002C01400034014000040040F0
:100D300000080040000C0040F0B50C4615460022AB
:100D400000210026078C4EF6FF7C07EA0C0707847B
:100D5000828B018C4FF6FF7707EA043640F6FF4797
:100D60003A404FF6FF7707EA05273A434FF6FF77F9
:100D700007EA03373A43114FB8420ED0104FB8423A
:100D80000BD0B0F1804F08D00E4FB84205D00E4FB7
:100D9000B84202D00D4FB84206D14DF6FF77394028
:100DA00046F48057394305E047F6FF57394044F48D
:100DB0008057394382830184F0BD0000002C01403C
:100DC000003401400004004000080040000C0040D6
:100DD00010B501210F4800F056F8D0B14FF0804116
:100DE0000D4800F059FF0C48008801F035F9044621
:100DF00000F05AFF0949084800F04EFF06480088F5
:100E000001F02AF9044600F0B7FF0121014800F083
:100E10000AF810BD0010004014000020002C014012
:100E2000CA4302827047CA430282704721B10288D6
:100E300042F00102028004E002884FF6FE731A407D
:100E400002807047F0B50C4615461E460021002270
:100E500000230189028B038C4FF6F8773940214338
:100E60004FF6FC473A4040F201173A434FF6DD7720
:100E70003B404FF6FF7707EA06172F433B430181BC
:100E800002830384F0BD30B5024600200023002415
:100E9000158A05EA0103958905EA010413B10CB12D
:100EA000012000E0002030BD70B505460C46244806
:100EB00085420ED0234885420BD0B5F1804F08D033
:100EC0002148854205D02148854202D020488542EC
:100ED00000D100E000BF208850B92389A288618832
:100EE0002846FFF755FEE188284600F042F925E044
:100EF000208804280AD12389A28861882846FFF720
:100F000087FEE188284600F03DF917E02088082890
:100F10000AD12389A28861882846FFF7C5FEE188A7
:100F2000284600F03CF909E02389A2886188284618
:100F3000FFF702FFE188284600F03AF970BD000093
:100F4000002C014000340140000400400008004033
:100F5000000C00401AB183890B43838102E083892E
:100F60008B4383817047000070B50024002200236A
:100F7000058C4FF6FE7635400584028C8388048B01
:100F80004FF68F752C40B51E2C400D882C43751ED6
:100F90002A400D892A434D882A43144DA8420BD07C
:100FA000134DA84208D0134DA84205D0124DA842B7
:100FB00002D0124DA84213D14FF6F7752A404D8941
:100FC0002A434FF6FB752A408D882A434FF6FF656A
:100FD0002B404FF6FF552B408D892B43CD892B435A
:100FE00083800483CD888586028470BD002C0140F7
:100FF00000340140004001400044014000480140ED
:101000000A460021018B4FF6F77319401143018303
:101010007047000070B5002400220023058C4FF6B5
:10102000EF7635400584028C8388048B48F6FF7583
:101030002C404FF6FF452C400D884FF6FF7606EA10
:1010400005252C434FF6DF752A400D8906EA051564
:101050002A434D8806EA05152A43154DA84202D0B9
:10106000144DA8421DD14FF67F752A404D894FF689
:10107000FF7606EA05152A434FF6BF752A408D888C
:1010800006EA05152A434FF6FF352B404FF2FF7550
:101090002B408D8906EA85052B43CD8906EA850517
:1010A0002B4383800483CD880587028470BD0000B4
:1010B000002C0140003401400A460021018B4FF210
:1010C000FF7319404FF6FF7303EA022319430183AC
:1010D0007047000070B5002200230024058C4EF6F6
:1010E000FF7635400584038C8488828B48F6FF7533
:1010F0002A404FF6FF452A400D884FF6FF7606EA54
:1011000005252A434DF6FF752B400D8906EA053566
:101110002B434D8806EA05352B430B4DA84202D0E0
:101120000A4DA84208D14BF6FF752C408D894FF629
:10113000FF7606EA85152C4384808283CD88A0F84B
:101140004050038470BD0000002C01400034014079
:101150000A460021818B4FF2FF7319404FF6FF734F
:1011600003EA022319438183704701877047818412
:101170007047028B4FF6F3731A400283028B0A43C7
:1011800002837047028B4FF2FF331A400283028BB7
:101190004FF6FF7303EA01231A4302837047828BE1
:1011A0004FF6F3731A408283828B0A43828370471F
:1011B000828B4FF2FF331A408283828B4FF6FF738C
:1011C00003EA01231A438283704700000022028849
:1011D0001D4B98420ED01D4B98420BD0B0F1804F62
:1011E00008D01B4B984205D01A4B984202D01A4B9C
:1011F000984204D14FF68F731A404B881A43174B0D
:10120000984207D0164B984204D04FF6FF431A403D
:10121000CB881A4302808B8883850B8803850A4B11
:1012200098420BD0094B984208D00E4B984205D0FB
:101230000D4B984202D00D4B984201D10B7A038698
:101240000123838270470000002C014000340140DC
:101250000004004000080040000C00400010004066
:10126000001400400040014000440140004801409B
:1012700010B540F225511D4800F0E6F810B31B48A8
:1012800000F09EF9C4B21A48008800F40040C8B9C2
:101290001748008800F4804060B10A2C03D0002079
:1012A0001349088020E01248008840F400401049AB
:1012B000088019E00D2C06D10D48008840F48040CC
:1012C0000B49088010E00A480088C0F30D00094966
:1012D0000C5407480088401C0549088008460088CF
:1012E000C72801DD0020088010BD00000038014043
:1012F0004C000020B400002010B540F225511D48DC
:1013000000F0A2F810B31B4800F05AF9C4B21A4812
:10131000008800F40040C8B91748008800F48040F5
:1013200060B10A2C03D000201349088021E0124844
:10133000008840F40040104908801AE00D2C06D1C6
:101340000D48008840F480400B49088011E00A48AD
:101350000088C0F30D0009490C5409480088401C5E
:101360000749088004480088C72802DD0020024998
:10137000088010BD004400404E000020B400002052
:101380004C00002010B586B0044601212120FFF753
:10139000C9FA01214804FFF7B5FA01210820FFF737
:1013A00003FA18208DF8170003208DF8160020206E
:1013B000ADF8140005A91C48FFF76BF904208DF85F
:1013C00017004020ADF8140005A91748FFF761F990
:1013D00026208DF8000003208DF8010005208DF8EF
:1013E000020001208DF803006846FFF72BFA0194F4
:1013F0000020ADF80800ADF80A00ADF80C00ADF81B
:1014000010000C20ADF80E0001A9084800F06CF89F
:10141000012240F22551054800F040F8012103481F
:1014200000F006F806B010BD001401400044004072
:1014300021B1828942F40052828104E082894DF612
:10144000FF731A408281704770B502460024002362
:101450000025002040F66A16B14200D100BFC1F35A
:10146000421501F01F03012606FA03F3012D02D1F4
:101470009689334006E0022D02D1168A334001E0FE
:10148000968A33400C12012606FA04F4168834407A
:1014900013B10CB1012000E0002070BDF0B503468F
:1014A000002400260025002040F66A17B94200D12A
:1014B00000BF1846C1F3421401F01F06012707FAC6
:1014C00006F5012C01D10C3004E0022C01D11030C2
:1014D00000E014301AB107682F43076002E0076884
:1014E000AF430760F0BD00002DE9F04786B0054628
:1014F0000E460024A24600BFA1460027B08900B1D5
:1015000000BF2F462C8A4CF6FF700440F08804433D
:101510002C82AC894EF6F3100440B0883189084320
:10152000718908430443AC81AC8A4FF6FF40044004
:10153000B0890443AC8201A8FFF704FA1F48874230
:1015400002D1DDF810A001E0DDF80CA0A88900F4BC
:10155000004040B10AEBCA0000EB0A1031684900B4
:10156000B0FBF1F807E00AEBCA0000EB0A103168A3
:101570008900B0FBF1F86420B8FBF0F00401200909
:10158000642101FB1089A88900F4004040B1322099
:1015900000EBC900B0FBF1F000F00700044308E0E5
:1015A000322000EB09106421B0FBF1F000F00F00D5
:1015B00004432C8106B0BDE8F087000000380140EC
:1015C00001468888C0F30800704700BFFEE700BFEF
:1015D0007047000000B591B001214FF40470FFF78F
:1015E000A1F901210846FFF77DF900208DF843009D
:1015F00003208DF842000720ADF8400010A93C48B8
:10160000FFF747F83B48FEF77FFF3B4805903B4814
:101610000690002007900320089000200990802069
:101620000A9000200F904FF480600C9020200D90C5
:1016300000020E9040110B9005A92E48FFF70AF802
:1016400001212C48FEF753FF0020009001208DF867
:1016500004008DF80500002003904FF460200290F4
:1016600003208DF81000694623484C38FEF7A4FE8D
:101670004FF44040FFF72AF9052301220A211E48B2
:101680004C38FEF7C1FE052301220B211A484C38C5
:10169000FEF7BAFE052301220C2117484C38FEF74D
:1016A000B3FE012114484C38FEF771FE01211248A7
:1016B0004C38FEF761FE10484C38FEF701FF00BFC2
:1016C0000D484C38FEF76EFE0028F9D10A484C3818
:1016D000FEF706FF00BF08484C38FEF763FE0028FF
:1016E000F9D1012104484C38FEF7EFFE11B000BDDE
:1016F00000100140080002404C240140640000201A
:1017000010B56FF00400FFF7FDF90A4800680A49B8
:10171000B0FBF1F0094908700846007800EB400181
:10172000C1EBC0104FF6FF7101EAC0000449088008
:1017300010BD00000000002000127A0044000020CC
:10174000460000200146114A12884A434FF0E02328
:101750005A6100229A611A46126942F001021A6126
:1017600000BF4FF0E022106900F001021AB100F44E
:101770008032002AF5D04FF0E022126922F00102F7
:101780004FF0E0231A6100229A6170474600002062
:1017900000BF054A128802F04002002AF9D0C2B206
:1017A000014B1B1D1A8070470044004001468A8C83
:1017B000A2F5FE42FF3A90B247F6FF728A84704764
:1017C00088B000BF38A0006807901C2237A1684687
:1017D000FEF72AFDFFF794FF4FF4A060FFF76AF8C9
:1017E0004FF4E13000F066FB4FF4E130FFF7CAFD43
:1017F00042F227321146002000F064F942F227320B
:101800001146002000F0A8F9002000F09FF8002009
:1018100000F000F9642141F61F4000F017FB2A494F
:10182000002000F061F82849002000F071F84FF422
:10183000877240F60F6140F28F1000F0DDF9FFF77C
:10184000C9FE00BF2FE02148008800F40040F0B13D
:101850001E480088C0F30D05002600240BE0214639
:10186000284600F05FF81A49095D303901FB006035
:1018700086B2601C84B2AC42F1DB304600F0ECFB77
:101880000746114900F030F800201049088000BFD9
:1018900040F2DC50FFF756FF0EA0FEF7B9FC40F215
:1018A000DC50FFF74FFFCEE70D0A000077686F7737
:1018B000686F77686F77686F77686F77686F77683A
:1018C0006F77686F0A0D00000000C8424C000020CE
:1018D000B40000206920616D207468652074657310
:1018E00074200D0A000000000022054B1A60054B11
:1018F0001A60054B1A60054A10601A46116070475D
:1019000024000020280000202C00002030000020AF
:10191000024A1060024A1160704700004000002037
:101920003C00002070B5024600230120551A6D1EB0
:10193000ACB200BF07E000EB80054FF6FF7606EA89
:1019400045005D1CABB2A342F5DB70BD10B588B09D
:10195000044601210D20FEF7E5FF01210846FEF7B0
:10196000D1FF0020ADF81600ADF812004FF6FF7061
:10197000ADF81400A0B2ADF8100004A94FF08040FB
:10198000FFF724FC01212048FEF70EFF04208DF80C
:101990001F0003208DF81E004FF40040ADF81C001E
:1019A00007A91A48FEF775FE0820ADF81C0007A924
:1019B0001748FEF76EFE00231A4603214FF08040C1
:1019C000FFF740FA0A20ADF80C0001A94007FFF725
:1019D0006BFA47F6FF714FF08040FFF7C8FB01211B
:1019E0008807FFF71DFA012211469007FFF7B2FAA8
:1019F00001218807FFF71AFA47F6FF704FF0804180
:101A0000888408B010BD00000003180000080140E1
:101A1000000C014010B588B00446012140F6490091
:101A2000FEF780FF0020ADF81600ADF812004FF66B
:101A3000FF70ADF81400A0B2ADF8100004A91E4864
:101A4000FFF7C4FB01211D48FEF7AEFE04208DF810
:101A50001F0003208DF81E004FF42060ADF81C001D
:101A600007A91748FEF715FE00231A4603214FF079
:101A70008040FFF7E7F90A20ADF80C0001A90E48F5
:101A8000FFF712FA47F6FF710B48FFF770FB0121D1
:101A90000948FFF7C5F9012211460748FFF75AFA2E
:101AA00001210548FFF7C2F947F6FF7002492431CA
:101AB000088008B010BD0000002C0140C0001600D6
:101AC0000018014070B588B004460E461546012145
:101AD0000520FEF727FF01210820FEF713FF002055
:101AE000ADF81600ADF81200B0B2ADF81400A0B217
:101AF000ADF8100004A91648FFF768FB18208DF810
:101B00001F0003208DF81E000820ADF81C0007A957
:101B10001048FEF7BEFD7020ADF800000120ADF8C2
:101B20000200ADF806500020ADF808004FF48070B8
:101B3000ADF80C0069460648FFF7CCFA08210448C6
:101B4000FFF706FB01210248FFF770F908B070BDEE
:101B5000000C00400008014070B588B004460E46F5
:101B6000154601211920FEF7DDFE01210220FEF7B6
:101B7000C9FE0020ADF81600ADF81200B0B2ADF805
:101B80001400A0B2ADF8100004A91848FFF71EFB1E
:101B900018208DF81F0003208DF81E008020ADF85E
:101BA0001C0001211248FEF7FFFD07A91148FEF7AE
:101BB00070FD7020ADF800000120ADF80200ADF816
:101BC00006500020ADF808004FF48070ADF80C000E
:101BD00069460648FFF71EFA08210448FFF76CFA29
:101BE00001210248FFF722F908B070BD000400404F
:101BF000000C1A000010014070B588B004460E4673
:101C0000154601212920FEF78DFE01210420FEF753
:101C100079FE0020ADF81600ADF81200B0B2ADF8B4
:101C20001400A0B2ADF8100004A91948FFF7CEFACD
:101C300001210803FEF7B8FD18208DF81F000320CE
:101C40008DF81E004FF48050ADF81C0007A9114814
:101C5000FEF71FFD6020ADF800000120ADF8020086
:101C6000ADF806500020ADF808004FF48070ADF8D4
:101C70000C0069460648FFF777F908210448FFF78A
:101C8000BFF901210248FFF7D1F808B070BD00008C
:101C9000000800400014014010B503460C462046E1
:101CA000FFF784FD188010BD2DE9FC5F06462A4829
:101CB0000168304600F0B0FA044628480168204622
:101CC00000F0B4FA0190254801684FF0804000F020
:101CD000D7F98246214600F09FFA814620480168E4
:101CE000484600F037F98046254641461D480068C1
:101CF00000F0C6F9824629461B48006800F0C0F98A
:101D000083461A480199006800F0BAF959460090D4
:101D100000F020F98146514600F01CF907460F48B3
:101D200000680F4908600D48046039461048006893
:101D300000F010F90E4908600846006880F0004A7B
:101D4000504600F069F91FFA80F949460948FFF743
:101D50000CFABDE8FC9F00003000002024000020A9
:101D600028000020200000201C0000201800002077
:101D70002C000020000400402DE9FC5F06462A48A4
:101D80000168304600F048FA0446284801682046B9
:101D900000F04CFA0190254801684FF0804000F0B7
:101DA0006FF98246214600F037FA814620480168E3
:101DB000484600F0CFF88046254641461D48006859
:101DC00000F05EF9824629461B48006800F058F989
:101DD00083461A480199006800F052F9594600906C
:101DE00000F0B8F88146514600F0B4F807460F48B5
:101DF00000680F4908600D480460394610480068C3
:101E000000F0A8F80E4908600E48006880F0004A0B
:101E1000504600F001F91FFA80F949460A48FFF7D9
:101E2000A4F9BDE8FC9F0000400000203400002021
:101E300038000020200000201C0000201800002096
:101E40003C0000202C000020000C00407FB5044620
:101E50000D4601210D20FEF765FD01211020FEF742
:101E600051FD0020ADF80A00ADF80600A8B2ADF8AB
:101E70000800ADF8044001A90D48FFF7A7F90122B9
:101E800011460B48FFF766F836208DF80000012058
:101E90008DF8030003208DF8020000208DF801006A
:101EA0006846FEF7CFFC01210148FEF7BFFF7FBD6A
:101EB0000010004010B586B00446012144F2040031
:101EC000FEF730FD4FF40070ADF8140003208DF8DC
:101ED000160018208DF8170005A91C48FEF7D9FB3D
:101EE0004FF48060ADF8140004208DF8170005A9A8
:101EF0001648FEF7CEFB25208DF8000003208DF854
:101F000001008DF8020001208DF803006846FEF7FD
:101F100099FC01940020ADF80800ADF80A00ADF876
:101F20000C00ADF810000C20ADF80E0001A9084817
:101F3000FFF7DAFA012240F225510548FFF7AEFA21
:101F400001210348FFF774FA06B010BD00080140F4
:101F50000038014090EA010F48BF81F0004100F1D4
:101F60006C81421A3CBF801A89184FEAD0524FF058
:101F70007F4C1CEA410FA2EBD15318BF9CEA026FC1
:101F800000F03B804FF0004C4CEA00204CEA01216D
:101F900021FA03FC10EB0C0C1ED202F1FF325FEAB7
:101FA0001C2040EBC25038BF70471CF07F0F4FEA37
:101FB000400C18BFBCF17F4F38BF7047C3F12003FE
:101FC000994008BF20F00100BCF17F4F38BF704737
:101FD000A0F1C04000F01BB94FEA3C00000A40EB02
:101FE000C25028BF1CF0FF0F4FEA400CE6D018BFCC
:101FF000BCF17F4F38BF7047EAE79CEA026F05D01B
:1020000010EA5C0F08BF00F00040704710B500F008
:10201000B8F800BF64FBBE3EC10DD1F19E0206DBE5
:102020004FEA002343F0004323FA02F070470042D6
:1020300007D54FEA4001B1F1FE4F02D24FF0000048
:10204000704710B500F09DF8499224800020704739
:102050006FEA200070470000B0FA80F310FA03F234
:10206000C3F19D030AD0D90501EB1220530638BFF6
:10207000704700F1010008BF20F001007047000028
:102080004FF47F0C1CEAD0121EBF1CEAD11392EA57
:102090000C0F93EA0C0F00F0478090EA010F48BF45
:1020A00042F480724FF0004C4CEA00204CEA0121CF
:1020B00002EB0302A0FB0113A2F50002002918BFE6
:1020C00043F001035B0028BF4FEA330342EB224297
:1020D0005FEA132C4CEBC2502EBFBCEB436FB2F542
:1020E0007C0F70474FEA036CBCF1004F08BF20F033
:1020F0000100B2F57C0F38BF70470BD582F0FF02AC
:1021000012F5803FC8BF704700F1C040D8BF00F053
:102110000040704700F5000C5FEA4C0C48BF704768
:10212000B0F1C04000F073B890EA010F0CEAD1138F
:1021300048BF42F48072624538BF634504D280EAEA
:10214000010000F00040704710B500F01AF800BF21
:102150008900013E00F007B800F009B85FEA410CC1
:102160005FEA1C6C08D080EA010000F050B85FEA1A
:10217000400C5FEA1C6CF6D14FF00040A0F58000E7
:1021800070470EF1020E2EF0030E5EF8044B24424F
:1021900004D44FEA4102B2F17F4F11D84FEA400315
:1021A000B3F17F4F0CD80ED14FEAD07CB2F17F4F04
:1021B0000CEB4C0C0CF1020C08BF4CEBD17C04E096
:1021C0004FF0080C01E04FEAD17C0CEB4C0324FAF1
:1021D00003F404F00704B4F1040C06D20EEB840CF3
:1021E000BDE810404CF0010C6047DFE80CF0070838
:1021F00002024FF00040A0F5800010BD08464200EA
:1022000018BFD2F1807288BF00F0004010BDFF21DE
:1022100041EAD050C005704780F0004090EA010FBD
:102220007FF59FAE81F0004100F007B890EA010F02
:1022300048BF81F000413FF594AE421A04D882F0C5
:102240000042A0EB020011444FEAD0524FF07F4C05
:102250001CEA410FA2EBD15318BF9CEA026F4AD08F
:102260004FF0004C4CEA00204CEA012121FA03FC1B
:10227000B0EB0C0C0FD412F0FE0F36D05FEA4C001E
:102280001DD5001240EBC25038BF70471CF03F0F05
:1022900018BF70470BE0A2F101025FEA1C2040EB7F
:1022A000C25038BF70471CF07F0F18BF7047C3F192
:1022B0002003994014BF401E20F0010070478008A1
:1022C0004FEA122308BF7047B0FA80FCA2EB0C0261
:1022D000CCF1280C60FA0CF093EA122F04BF00EB4B
:1022E000C25070474FEAC3707047130A5FEADC10B0
:1022F00008BF7047F6E79CEA026F04D010EA5C0F53
:1023000008BF0020704710B5FFF73BFF40DFF63EE7
:1023100081F00040704700003823000800000020D2
:10232000640000006C0100089C2300086400002089
:10233000440800008801000800A24A0400000000D0
:102340000000000001020304060708090000000065
:102350000000003F0000803F0AD7233C000000003F
:10236000000000000000000000000000000000006D
:10237000000000000000000000000000000000005D
:102380000000000000000000000000000102030443
:0C23900001020304060708090204060805
:04000005080001CD21
:00000001FF
